:1000000000800020A9010000D5010000D5010000FA
:10001000D5010000D5010000D5010000D501000088
:10002000D5010000D5010000D5010000D501000078
:10003000D5010000D5010000D5010000D501000068
:100040003D140000D5010000D5010000D5010000DD
:10005000D5010000D5010000D5010000B12A000043
:10006000D5010000D5010000D5010000193B0000BA
:10007000D5010000D5010000D5010000D501000028
:10008000D501000085310000D5010000D501000038
:10009000D5010000D5010000D5010000D501000008
:1000A000D54D0000D5010000D5010000D5010000AC
:1000B000D5010000D501000075350000D501000014
:1000C000D5010000D5010000D5010000D5010000D8
:1000D000D5010000D5010000D5010000D5010000C8
:1000E00010B5054C237833B9044B13B10448AFF372
:1000F00000800123237010BDBC0000200000000020
:100100000868000008B5064B1BB106480649AFF366
:1001100000800648036813B1054B03B1984708BD3A
:100120000000000008680000C0000020B8000020A7
:1001300000000000154B002B08BF134B9D46A3F594
:10014000803A00218B460F461348144A121A05F0D4
:10015000D7F90F4B002B00D098470E4B002B00D047
:1001600098470020002104000D000D48002802D00F
:100170000C48AFF3008005F09DF92000290004F041
:10018000B9FC05F083F900BF0000080000800020E2
:100190000000000000000000BC0000205002002011
:1001A0000000000000000000064880470649074A9A
:1001B000074B9A42BEBF51F8040B42F8040BF8E714
:1001C000FFF7B8FF5503000014680000000000208E
:1001D000BC000020FEE700BF80B400AF044BDB6C26
:1001E0001B0EDBB21846BD465DF8047B704700BFAE
:1001F000B081E00F80B582B000AF00F01FF87860EA
:10020000074B5B6803F00F037A6822FA03F37B6005
:10021000044B7A681A607B6818460837BD4680BD73
:1002200000800C403401002080B400AF024B18461F
:10023000BD465DF8047B7047006CDC0280B582B07F
:1002400000AF334BDB6A03F47053B3F5805F0AD021
:10025000B3F5005F03D0B3F5006F08D00BE02D4B72
:100260001B687B6047E04FF400437B6043E02A4B10
:100270001B687B603FE0264BDB6803F4E063B3F56B
:10028000007F1BD0B3F5007F05D8002B24D0B3F539
:10029000807F16D02BE0B3F5806F09D0B3F5A06F47
:1002A00003D0B3F5407F06D021E01C4B7B6021E0FA
:1002B0001B4B7B601EE01B4B7B601BE01A4B7B6083
:1002C00018E0FFF789FF0346122B02D9174B7B601A
:1002D00010E0174B7B600DE0FFF77EFF0346122B0B
:1002E00002D9144B7B6005E0134B7B6002E00023D6
:1002F0007B6000BF00BF064B1B6803F4E0339B0B21
:1003000001337A68B2FBF3F318460837BD4680BD67
:1003100000800C400400002000000020003FAB01E2
:10032000406F4001809FD500C0D8A70040B5640051
:10033000C0CF6A00804F120040420F0080B400AF6F
:10034000034B1B681846BD465DF8047B704700BF31
:100350000000002080B400AFBD465DF8047B70470C
:1003600080B400AF4FF400431846BD465DF8047BEF
:10037000704700BF80B400AF4FF47A731846BD4693
:100380005DF8047B704700BF80B400AF034B1B686F
:100390001846BD465DF8047B704700BF040000208E
:1003A00080B487B000AFF860B9607A60FB6803F191
:1003B0000473DA00BB6813449B007B617B697A6835
:1003C0001A601C37BD465DF8047B704780B485B069
:1003D00000AFF860B9607A60FB681A68BB68DB43FD
:1003E0001A407B681A43FB681A601437BD465DF8F3
:1003F000047B704780B582B000AF786039607A685E
:100400001D4B9A4203D07A681C4B9A4200D100BF20
:100410003B681B78DA073B685B789B0713431A46F7
:100420003B685B681B061A433B681B7A1B021A4336
:100430003B685B7A1B011A437B681A603B689B7AB6
:100440001B071A463B68DB7A1B041A433B68DB68D0
:100450001B02134343F0807343F0B0037A68536088
:100460007A683B681B7C104600211A46FFF798FF0C
:100470000837BD4680BD00BF00100040001400409A
:1004800080B584B000AFF860B960FA71BB71FA68EA
:100490000C4B9A4203D0FA680B4B9A4200D100BF32
:1004A000FA68BB79DB00104608211A46FFF78EFF79
:1004B000BB681A02FB791A43FB68DA611037BD4644
:1004C00080BD00BF001000400014004080B483B025
:1004D00000AF786013460A46FA70BB707A680C4B1E
:1004E0009A4203D07A680B4B9A4200D100BF7B68D6
:1004F0005B6823F0F702FB781B011A43BB781A43B1
:100500007B685A600C37BD465DF8047B704700BFBE
:10051000001000400014004080B582B000AF786049
:1005200039607A68224B9A4203D07A68214B9A420A
:1005300000D100BF7B68184600210022FFF730FF82
:100540003B681B78DA073B685B789B0713431A46C6
:100550003B685B681B061A433B681B7A5B041A43C3
:100560003B685B7A1B041A433B689B7A1B021A4365
:100570003B68DB7A1B011A433B681B7B9B001A43D9
:100580007B681A603B685B7B1B041A463B681B69EF
:100590001B021A437B685A607A683B681B7D1046D1
:1005A00000211A46FFF7FCFE0837BD4680BD00BF9C
:1005B000001000400014004080B487B000AFF86025
:1005C000B9607A60FB6803F10473DA00BB68134416
:1005D0009B007B617B697A681A601C37BD465DF8B9
:1005E000047B704780B485B000AF786039607B6869
:1005F00003F10473DA003B6813449B00FB60FB6863
:100600001B6818461437BD465DF8047B704700BF71
:1006100080B485B000AF78607B68002B04D07B6825
:10062000B3F5004F00D800BF7B68B3FA83F3C3F182
:100630001F03FB60FB6818461437BD465DF8047B5A
:10064000704700BF80B400AF044BDB6C1B0EDBB205
:100650001846BD465DF8047B704700BFB081E00FCF
:1006600080B400AF054BDB6C03F47F031B0CDBB2E3
:100670001846BD465DF8047B704700BFB081E00FAF
:1006800080B582B000AFFFF7EBFF03464A2B04D0E2
:10069000792B02D0482B22D023E0144B1B699BB24C
:1006A00003F03F039BB21B02FB80104B9B699BB284
:1006B00003F0F0039AB2FB881343FB800B4BDB691A
:1006C00003F0F0031B099AB2FB881343FB80FB88FD
:1006D000B3F5017F01D3064B04E0064B02E0054B66
:1006E00000E0002318460837BD4680BDD0FF0FE06C
:1006F00000366E010048E80180B584B000AF786034
:1007000039607A683B689A4294BF00230123DBB2C8
:10071000FB6006481E21FA68FFF74EFF04480821D7
:10072000FA68FFF749FF1037BD4680BD00800C40D6
:1007300004800C4080B582B000AF07481E21FFF74F
:1007400051FF786005480821FFF74CFF38607B684F
:1007500018460837BD4680BD00800C4004800C4020
:1007600080B582B000AF214B5B6903F4E063B3F561
:10077000007F1CD0B3F5007F05D8002B25D0B3F542
:10078000807F1FD02AE0B3F5C06F24D0B3F5E06FAF
:100790001ED0B3F5407F21D1FFF754FF0346122B43
:1007A00002D9134B7B601CE0124B7B6019E0FFF712
:1007B00049FF0346122B02D90F4B7B6011E00F4B10
:1007C0007B600EE00E4B7B600BE00E4B7B6008E025
:1007D0000D4B7B6005E00D4B7B6002E000237B60EE
:1007E00000BF7B6818460837BD4680BD00800C40BE
:1007F000804F120040420F0040B56400C0CF6A0035
:10080000C0D8A700809FD500406F4001003FAB01DA
:1008100080B582B000AF0D4800F0A6FB0346FB7028
:10082000FB78072B05D0082B07D1FFF707FD786071
:1008300006E0FFF795FF786002E000237B6000BFD1
:100840007B6818460837BD4680BD00BF06000C0017
:1008500080B485B000AF7860284BDB6B002B0CBFF9
:1008600000230123BB72254B41F67132DA63234B1F
:100870005B6803F00703FB60FB68012B01D9042BC5
:1008800002D10023FB7202E00123FB7200BF7A68F1
:100890001B4B9A4207D9FB7A002B01D0052300E0BD
:1008A0000423FB6016E07A68154B9A420BD87A68ED
:1008B000144B9A4207D9FB7A002B01D0032300E0A6
:1008C0000123FB6006E0FB7A002B01D0022300E04D
:1008D0000023FB60094B094A526822F00701FA68BD
:1008E0000A435A60BB7A002B02D0044B0022DA6321
:1008F0001437BD465DF8047B704700BF00000C4014
:100900000048E8010024F40080B500AFFFF78CFC3C
:1009100003461846FFF79CFF80BD00BF90B585B029
:1009200000AF78600023BB607B68344A934203D0F9
:10093000334A934200D000E000BF786800F014FB17
:100940000346FB607B682D4A934203D02C4A9342B6
:1009500006D00CE02B4B9B6A03F00303FB6006E020
:10096000284B9B6A03F00C039B08FB6000BFFB68ED
:10097000032B3AD801A252F823F000BFB3090000BC
:100980008D090000950900009D090000FFF7E8FCB3
:10099000B8602DE0FFF7F8FCB86029E0FFF72AFC0B
:1009A0000446FFF7C7FE0346013324FA03F3BB6096
:1009B0001EE00023BB607A68104B9A4203D07A682D
:1009C0000F4B9A4210D10F4B9A6A79680B4B9942A0
:1009D00001D1102300E0142322FA03F3002B03D0EB
:1009E000FFF7C8FCB86003E002E00023BB6000BF73
:1009F000BB6818461437BD4690BD00BF0200180002
:100A000003001A0000800C4080B483B000AF78600F
:100A1000094B5B6D03F00103002B00D006E000BF23
:100A2000054B1A6D7B681340002BF9D10C37BD467E
:100A30005DF8047B704700BF00800C4080B582B039
:100A400000AF104800F090FA0346FB70FB78032BD0
:100A500007D0082B09D0022B0BD1FFF795FC78604B
:100A60000AE0FFF77DFC786006E0FFF7E7FB7860BF
:100A700002E000237B6000BF7B6818460837BD4654
:100A800080BD00BF07232000B0B584B000AF786000
:100A900039607B681B0903F00F03FB60FB68013BB7
:100AA000062B00F2F68001A252F823F0C90A0000DA
:100AB000930C0000930C0000FD0A0000270B0000BF
:100AC0007B0B00003F0C00003B68002B03D03B6811
:100AD000082B00D800BFFFF717FF704B6F4A126852
:100AE00022F4E0313A68013A92030A431A60FFF7B0
:100AF00081FBB860B868FFF7ABFECBE03B68002B2A
:100B000004D03B68B3F5007F00D800BF3868FFF71A
:100B10007FFD3860614B614A926822F00F013A68AC
:100B20000A439A60B6E03B68002B04D03B68B3F5FB
:100B3000007F00D800BFFFF7E7FEFFF77FFB02460C
:100B40003B68B2FBF3F4FFF79BFD034620461946D2
:100B5000FFF7D2FD3868FFF75BFD38604F4B4F4A17
:100B6000526822F00F013A680A435A60FFF742FBCD
:100B7000B860B868FFF76CFE8CE07B68484A934227
:100B80001ED0474A934203D8464A934207D055E0C5
:100B9000454A934225D0454A93423FD04EE0042037
:100BA000FFF732FF3868FFF733FD38603B4B3B4AB5
:100BB000926E22F0F0013A6812010A439A663DE013
:100BC0000420FFF721FF3868FFF722FD3860334B20
:100BD000324A926E22F470613A6812020A439A66AF
:100BE0002CE03B680F2B03D93B68802B00D800BF5B
:100BF0000420FFF709FF3868FFF70AFD3860274C2B
:100C0000264B9B6E23F440551020FFF701FD034651
:100C10003A68D31A1B032B43A3660FE00420FFF7A7
:100C2000F3FE3868FFF7F4FC38601C4B1B4A926EE9
:100C300022F003013A680A439A6600BF2AE07B6803
:100C40001B4A934203D01B4A934210D020E040201D
:100C5000FFF7DAFE3868FFF7DBFC38600F4B0F4A0E
:100C6000126F22F003013A680A431A6710E040202D
:100C7000FFF7CAFE3868FFF7CBFC3860074B074A1E
:100C8000126F22F030013A6812010A431A6700BF5E
:100C900000E000BF1037BD46B0BD00BF00800C4073
:100CA0006026120060161000600024006006280014
:100CB000700714007017160090B587B000AF786009
:100CC0000B46FB7000233B617B681B0A03F00F039C
:100CD000013B092B49D801A252F823F0210D000055
:100CE000270D0000050D00006B0D00006B0D0000CE
:100CF0002D0D0000370D00006B0D00006B0D000086
:100D0000410D00001B4B7B611B4800F041F804467D
:100D1000FFF7B6FC034620461946FFF7EDFC12E04C
:100D2000164B7B610FE0164B7B610CE0154B7B6132
:100D300001233B6107E0144B7B6110233B6102E020
:100D4000124B7B6100BF7B681B0B03F01F03FB6032
:100D50003B69002B02D03869FFF756FEFB787869B3
:100D6000F9681A46FFF728FC00E000BF1C37BD46B3
:100D700090BD00BF40800C400043020008800C4042
:100D800044800C4058800C4060800C4078800C40BF
:100D900090B585B000AF78607B6803F47813B3F545
:100DA000A01F00F0AB80B3F5A01F1AD8B3F5402FF9
:100DB00000F0BF80B3F5402F08D8B3F5003F3CD01A
:100DC000B3F5802F2DD0002B27D0BEE0B3F5801FC8
:100DD0003CD0B3F5901F47D0B3F5602F00F0AD8045
:100DE000B3E0B3F5001F00F0AC80B3F5001F0AD8E4
:100DF000B3F5C01F25D0B3F5D01F7AD0B3F5B01F1F
:100E000000F08980A1E0B3F5181F4ED0B3F5201F84
:100E100062D0B3F5101F35D097E0FFF70FFAF860F6
:100E200096E0FFF70BFAF8604C4B9B6803F00F035A
:100E3000FA6822FA03F3FB608AE0FFF7DBF9F86057
:100E400086E04748FFF76AFDF86081E04448FFF715
:100E500065FDF860414B9B6E03F0F0031B09FA68D7
:100E600022FA03F3FB6073E03D48FFF757FDF8609B
:100E70003A4B9B6E03F470631B0AFA6822FA03F381
:100E8000FB6065E03648FFF749FDF860334B9B6E29
:100E900003F440531C0B1020FFF7BAFB0346234416
:100EA000FA6822FA03F3FB6052E02D48FFF736FDA3
:100EB000F8602A4B9B6E03F440531B0BFA6822FA2E
:100EC00003F3FB60254BDB6F03F007030133FA6884
:100ED000B2FBF3F3FB603BE02148FFF71FFDF86036
:100EE0001E4B9B6E03F00303FA6822FA03F3FB60C8
:100EF0002EE01C48FFF712FDF86029E01948FFF7C3
:100F00000DFDF860154B1B6F03F00303FA6822FA1E
:100F100003F3FB601CE01348FFF700FDF8600F4B84
:100F20001B6F03F030031B09FA6822FA03F3FB601E
:100F30000EE0FFF76DFCF8600AE0FFF711FCF860C7
:100F400006E0FFF77BFDF86002E00023FB6000BFD6
:100F5000FB6818461437BD4690BD00BF00800C40AA
:100F60000200180003001A0080B485B000AF78605A
:100F70000123FB737B6803F00F03BB60BB68013B7D
:100F8000062B00F2938001A252F823F0A90F000073
:100F9000DF0F00001B100000AD100000AD100000BE
:100FA0005710000079100000454BDB6A03F47053C2
:100FB000B3F5805F09D0B3F5005F03D0B3F5006FE0
:100FC00006D008E00223FB7308E00323FB7305E06F
:100FD0000423FB7302E00523FB7300BF69E0384B79
:100FE0009B6A03F00303022B06D0032B07D0012BCF
:100FF00008D10323FB730FE00223FB730CE00623ED
:10100000FB7309E02E4B9B6A03F48033002B02D064
:101010000923FB7300E000BF4BE0294B9B6A03F000
:101020000C03082B06D00C2B07D0042B08D103236C
:10103000FB730FE00223FB730CE00623FB7309E054
:101040001F4B9B6A03F48013002B02D00923FB7310
:1010500000E000BF2DE01A4B1B6803F08053002B0B
:1010600003D0B3F1805F03D023E00723FB7302E0DA
:101070000823FB7300BF1CE0114BDB6A03F46033F1
:10108000B3F5803F08D0B3F5003F08D0B3F5004F6B
:1010900008D10823FB7308E00223FB7305E0032358
:1010A000FB7302E00123FB7300BF02E00023FB732C
:1010B00000BFFB7B18461437BD465DF8047B7047C4
:1010C00000800C4090B589B000AF78600B46FB7093
:1010D0000323FB610323FB7600233B617B6803F062
:1010E0000F03FB60FB68013B062B00F2348101A279
:1010F00052F823F011110000FD110000FD11000055
:101100005713000057130000C5120000EF12000033
:10111000FB78023B072B00F2228101A252F823F058
:10112000411100004B110000551100009F110000FB
:101130005F1300005F1300005F1300005F130000E7
:101140000423FB610023FB7639E00323FB610123C9
:10115000FB7634E00223FB610223FB76FFF790FA73
:1011600003465C1CFFF78CFA034620461946FFF73E
:10117000C3FAFFF7E3F802467C4B9A4206D97C4B50
:101180007B4A126842F060021A6018E0784B784A95
:10119000126822F0600242F020021A600FE0012380
:1011A000FB610323FB76FFF76BFA03465C1CFFF73A
:1011B00067FA034620461946FFF79EFA00BFFB7EFA
:1011C00018460121012200F0D9F8FFF79DFB684B7A
:1011D000FA695A626748FFF7DBFD0446FFF750FAE9
:1011E000034620461946FFF787FA00F00BFBFFF78E
:1011F00001F8B860B868FFF72BFBADE0FB78013B66
:10120000082B00F2AE8001A252F823F03112000048
:101210003712000047120000631300006313000040
:101220005712000063130000631300007B120000DC
:1012300000237B6126E000200121012200F09EF8BE
:1012400002237B611EE001200121012200F096F8BB
:1012500001237B6116E0FEF7CDFFB860FFF710FABF
:101260000346B8681946FFF747FA434804210122AC
:10127000FFF7A2F903237B6104E000237B610123D4
:101280003B6100BFFB68022B0DD1394A384B9B6A8A
:1012900023F4803323F00303796919433B691B046A
:1012A0000B43936258E0324A314B9B6A23F480131C
:1012B00023F00C037969890019433B691B050B4333
:1012C000936249E0FB78072B02D0082B07D049E056
:1012D000274B274A126822F080521A6006E0244BFE
:1012E000234A126842F080521A6000BF34E0FB7853
:1012F000032B14D0082B22D0022B00D032E0002088
:101300000121012200F03AF8194B40225A6200BF35
:10131000174BDB6A03F48033002BF9D01AE001206D
:101320000121012200F02AF8114B60225A6200BF0D
:101330000F4BDB6A03F40033002BF9D00AE00C4BAF
:1013400020225A6200BF0A4BDB6A03F40043002BE1
:10135000F9D000BF00E000BFFFF7ECF902E000BFEA
:1013600000E000BF2437BD4690BD00BF0048E80143
:1013700000800C400043020040800C4080B586B0E5
:1013800000AF13460246FA710A46BA717B71FB79C7
:10139000042B4AD801A252F823F000BFE913000041
:1013A000DB130000BF130000B1130000CD130000D9
:1013B00001233B610223FB6001237B611DE00423C9
:1013C0003B610823FB6003237B6116E010233B6134
:1013D0002023FB6005237B610FE040233B618023DA
:1013E000FB6007237B6108E04FF480733B614FF49F
:1013F0000073FB6009237B6100BFBB79002B0ED01B
:101400000C4B3A691A627B79002B0BD000BF0A485B
:101410007969FFF7E7F80346002BF8D002E0054BA7
:10142000FA681A6200F0EEF900E000BF1837BD4616
:1014300080BD00BF00800C402C800C4080B58AB07D
:1014400000AF334B03F580531B68BB61304B03F592
:1014500080530C331B68BA691340BB612C4B9B6BE8
:101460007B61BA697B6913403B620023FB6149E001
:1014700000237B623BE03B6A03F00103002B30D08A
:10148000234B9B683B6101227B6A02FA03F3FB60FA
:101490001F4B03F580530833FA681A607B6A1B01FF
:1014A0003A691344DB68BB60BB68002B19D0BB688A
:1014B0001B7A7B60BB681B7A83F00103DAB2BB68DE
:1014C0001A72BB681B68002B0BD0BB681B68786A5C
:1014D0007A68002A0CBF00220122D1B2BA68526891
:1014E00098473B6A5B083B627B6A01337B623B6ADD
:1014F000002BC0D17B69DA43BB6913403B62FB69B7
:101500000133FB61FB69012BB2DD2837BD4680BD8D
:1015100000200C4080B500AFFEF76CFE80BD00BF20
:1015200080B400AF034B0022C3F88420BD465DF8B1
:10153000047B704700800C4080B400AF044B45F63C
:101540000E02C3F88420BD465DF8047B704700BFDF
:1015500000800C4080B582B000AF384BD3F88430A7
:1015600003F001037B60FFF7E7FF00233B60344B90
:101570001B6803F001033A6813433B60304B1B6860
:1015800003F010033A6813433B602D4B1B6803F0D4
:1015900040033A6813433B60294B1B6803F0040384
:1015A0003A6813433B60264B1B6803F480733A6828
:1015B00013433B60214B3A681A62214B1B6803F4CA
:1015C0007053B3F5805F06D0B3F5005F0ED0B3F56E
:1015D000006F16D020E000BF184BDB6A03F08003D9
:1015E000002BF9D0154B03225A6215E000BF134BB4
:1015F000DB6A03F40073002BF9D0104B04225A620B
:101600000AE000BF0D4BDB6A03F00803002BF9D0A2
:101610000A4B02225A6200BF094B1B6803F0010308
:10162000002B02D1054B02221A627B68002B01D0ED
:10163000FFF776FF0837BD4680BD00BF00800C4035
:10164000D800002080B483B000AF174B1B699BB259
:1016500003F03F039BB21B02FB80134B9B699BB2C1
:1016600003F0F0039AB2FB881343FB800E4BDB6957
:1016700003F0F0031B099AB2FB881343FB80FB883D
:10168000B3F5827F03D3FB88B3F5017F01D101233A
:1016900000E0002303F00103DBB218460C37BD461F
:1016A0005DF8047B704700BFD0FF0FE080B586B0C7
:1016B00000AF0346FB711F4BDA6A1F4B1A601F4BCA
:1016C0001E4A126942F004021A61FFF7BBFF03468B
:1016D000FB75FB7D002B11D0194B1A68194B134079
:1016E000FB60174BFA68C3F88020154B5B6823F04A
:1016F00046033B61124B3A69C3F8842030BFFB7D3F
:10170000002B05D00E4BFA681A600D4B3A695A60EF
:10171000FB79002B02D0FFF71DFF07E0064B1B688B
:1017200003F48063002B01D1FFF7F4FE1837BD46A8
:1017300080BD00BF00800C40D800002000ED00E01C
:1017400000E100E09CF1FD0080B586B000AF0346EB
:10175000FB71274BDA6A274B1A60254BD3F884308C
:1017600003F001037B61FFF7E7FE214B4FF420728A
:101770001A627B69002B01D0FFF7D2FE1E4B1E4A76
:10178000126942F004021A61FFF75CFF0346FB7422
:10179000FB7C002B11D0194B1A68194B1340BB600E
:1017A000164BBA68C3F88020144B5B6823F04603DD
:1017B000FB60124BFA68C3F8842030BFFB7C002B1F
:1017C00005D00E4BBA681A600C4BFA685A60FB7968
:1017D000002B02D0FFF7BEFE07E0064B1B6803F4A8
:1017E0008063002B01D1FFF795FE1837BD4680BD01
:1017F00000800C40D800002000ED00E000E100E097
:101800009CF1FD0080B400AF034BDA6A034B1A6011
:10181000BD465DF8047B704700800C40D800002076
:1018200080B487B000AFF860B9607A60FB6803F1FC
:101830000473DA00BB6813449B007B617B697A68A0
:101840001A601C37BD465DF8047B704780B485B0D4
:1018500000AFF860B9607A60FB681A68BB68DB4368
:101860001A407B681A43FB681A601437BD465DF85E
:10187000047B704780B483B000AF03463960FB71CE
:10188000FB79002B0DD0FB79012B0AD0FB79022BC1
:1018900007D0FB79032B04D0FB79042B01D0FB7913
:1018A000052B0948FA793B68012101FA03F319462F
:1018B0001346DB0013449B000344103359600C377C
:1018C000BD465DF8047B70470060004080B483B083
:1018D00000AF03463960FB71FB79002B0DD0FB791B
:1018E000012B0AD0FB79022B07D0FB79032B04D004
:1018F000FB79042B01D0FB79052B0948FA793B6869
:10190000012101FA03F319461346DB0013449B003F
:101910000344103319600C37BD465DF8047B7047F3
:101920000060004090B482B000AF02460B46FA71EE
:10193000BB71FB79002B0ED0FB79012B0BD0FB790F
:10194000022B08D0FB79032B05D0FB79042B02D0A6
:10195000FB79052B03D1BB79032B00D800BF0C48C2
:10196000FA790B4CF9790B46DB000B449B002344BE
:101970001B6823F00301BB7919431346DB001344B2
:101980009B00034419600837BD4690BC704700BFF8
:101990000060004080B586B000AFB9607A60024652
:1019A000FA73BB73FB7B002B0DD0FB7B012B0AD0A2
:1019B000FB7B022B07D0FB7B032B04D0FB7B042B90
:1019C00001D0FB7B052BBB68072B0ED8BB689B00A7
:1019D00007229A40F97BBB689B0001FA03F31A487F
:1019E00011461A46FFF732FF10E0BB68083B7B61E7
:1019F0007B699B0007229A40F97B7B699B0001FA77
:101A000003F3124811461A46FFF720FFBB7B10482C
:101A1000B9681A46FFF704FF97F820300D48B968F7
:101A20001A46FFF7FDFE0C4BBA68012101FA02F2DB
:101A3000C3F81C2197F824300848B9681A46FFF704
:101A4000EFFE1837BD4680BD0061004004610040D4
:101A5000086100400C6100400060004010610040DF
:101A600090B585B000AFB9607B600346FB73134649
:101A7000BB73FB7B002B0DD0FB7B012B0AD0FB7BC8
:101A8000022B07D0FB7B032B04D0FB7B042B01D064
:101A9000FB7B052BBB7B002B0DD07B68002B05D07F
:101AA000FB7B1846B968FFF711FF04E0FB7B184683
:101AB000B968FFF7DFFEBB68072B1DD82B48FA7B00
:101AC0002A4CF97B0B46DB000B449B0023445968EE
:101AD000BB689B000F2404FA03F3DB431940BC7B73
:101AE000BB689B0004FA03F319431346DB0013445D
:101AF0009B000344596024E01C48FA7B1B4CF97B93
:101B00000B46DB000B449B00234408331968BB6879
:101B100003F18043083B9B000F2404FA03F3DB43EB
:101B20001940BC7BBB6803F18043083B9B0004FA6F
:101B300003F319431346DB0013449B0003440833AB
:101B40001960BB7B002B0DD17B68002B05D0FB7B84
:101B50001846B968FFF7BAFE04E0FB7B1846B9687F
:101B6000FFF788FE1437BD4690BD00BF00600040FF
:101B700080B487B000AFF860B9607A60FB6803F1A9
:101B80000473DA00BB6813449B007B617B697A684D
:101B90001A601C37BD465DF8047B704780B485B081
:101BA00000AFF860B9607A60FB681A68BB68DB4315
:101BB0001A407B681A43FB681A601437BD465DF80B
:101BC000047B704780B588B000AFF860B9607A6078
:101BD000FB707B68002B00D15EE0FB681B6823F480
:101BE0004072FB681A60FA68FB781B0210464FF4DB
:101BF00040711A46FFF7D2FFBB68002B03D128487B
:101C0000FFF7C6F8B8604FF0FF33BB61FB681B6895
:101C100003F00203002B11D0FB78012B07D0022B1D
:101C200008D0002B00D019E01E4BBB6105E01E4B15
:101C3000BB6102E01D4BBB6100BF0FE0FB78012BD5
:101C400006D0022B07D0002B08D1194BBB6105E051
:101C5000184BBB6102E0184BBB6100BFFB78174A11
:101C6000D35C7B617B689B00BA68D21A7B69796818
:101C700001FB03F3B2FBF3F3013BFB61FB681B6861
:101C800003F00203002B04D0FB69002B01D10123D8
:101C9000FB61FA69FB681A612037BD4680BD00BF51
:101CA0004081040040164000C0D8A7008050740155
:101CB00080841E0040548900002D31012C55000005
:101CC00080B582B000AF786039607A68174B9A426D
:101CD00003D07A68164B9A4200D100BF7B6800227D
:101CE0005A637B68134A1A637A683B685B78002BF7
:101CF00001D0002300E00123104601211A46FFF71E
:101D000037FF3B6859683B689A683B681B7B78687B
:101D1000FFF758FF7A683B681B78104600211A4687
:101D2000FFF726FF0837BD4680BD00BF00A000407A
:101D300000A40040CFFF010080B487B000AFF8607E
:101D4000B9607A60FB6803F10473DA00BB6813447E
:101D50009B007B617B697A681A601C37BD465DF821
:101D6000047B704780B582B000AF78600B46FB7093
:101D7000FB78002B01D000F051FB7B681B7D1846DF
:101D800000F020F9504B7A68527891007A68927886
:101D900011437A68926811437A68D26811437A686D
:101DA000D278520211437A681279920211437A680A
:101DB0005279520311437A689279520411437A6836
:101DC000D279120411437A68527C92050A431A6050
:101DD0007B681B781846002100F0D6F83A4B7A68E9
:101DE000127E11467A68527E920011437A68927E82
:101DF000920111437A68D27E520011437A68127FB1
:101E0000120111437A68527F120211437A68927F5D
:101E1000920211437A68126A11437A6892F8242078
:101E2000120511437A6892F82520920511437A68C9
:101E3000926A0A439A60244B7A68928D11467A68B6
:101E400092F83B20920211437A6892F83C20920368
:101E500011437A6892F83D20920411437A6892F80F
:101E60003E20920511437A6892F8342052001143C3
:101E70007A6892F83520920011437A6892F83620F9
:101E8000D20011437A6892F83720120111437A6820
:101E900092F83820520111437A6892F83920920161
:101EA00011437A6892F83A20D2010A43DA607B68DB
:101EB0001B6B184600F054FA034B7A68127C1A61C7
:101EC0000837BD4680BD00BF00C0084080B588B05F
:101ED00000AF786039600023FB610123BB613F23C1
:101EE0007B617B68002B03D12548FEF751FF7860AA
:101EF0003B68002B04D03A687B689A4200D808E01F
:101F000007E0FB690133FB61FB69012202FA03F37D
:101F1000BB613B68BA6902FB03F37A68B2FBF3F278
:101F20007B6901339A4202D9FB69062BE9D93B68E8
:101F3000BA6902FB03F37A68B2FBF3F3013B7B61FE
:101F4000104B5B6823F47F2323F4E0633B61FB6960
:101F50001A027B691B0313433A6913433B61094B24
:101F60003A695A607B690133BA6902FB03F37A6804
:101F7000B2FBF3F3FB60FB6818462037BD4680BD1B
:101F80006006280000C0084080B584B000AF02465B
:101F90000B46FA71BB710A4B1B6823F00303FB600D
:101FA000FB79FA681343FB60054BFA681A60BB794A
:101FB000002B01D000F0E4F91037BD4680BD00BF12
:101FC00000C0084080B485B000AF0346FB71094BE8
:101FD0005B6823F44003FB60FB799B05FA681343BD
:101FE000FB60044BFA685A601437BD465DF8047B09
:101FF000704700BF00C0084080B485B000AF024603
:102000000B46FA71BB71FB79002B0FD0012B00D06E
:102010001AE0104B5B6823F00303FB60BB79FA689E
:102020001343FB600B4BFA685A600DE0094B5B6889
:1020300023F07003FB60BB791B01FA681343FB605C
:10204000044BFA685A6000BF1437BD465DF8047B44
:10205000704700BF00C0084080B584B000AF786012
:1020600039607B685B68B3F5C03F0BD13B68022BDE
:1020700008D03B68032B05D03B68042B02D03B689B
:10208000052B00D100BF7B681B7A032B0BD13B686B
:102090000C2B08D03B680D2B05D03B680E2B02D0D3
:1020A0003B680F2B00D100BF7B681B7A032B0BD141
:1020B0003B68002B08D03B68012B05D03B68022B06
:1020C00002D03B68032B00D100BF394B9A6B3B68B1
:1020D0005B00032101FA03F3DB431340FB607B68E1
:1020E0001B7A1A463B685B0002FA03F3FA68134353
:1020F000FB602F4BFA689A633B68D8B27B68D97B48
:102100007B681A7C7B685B7C00F0D2F828497B688E
:102110005B7B5A047B689B7B9B041A437B689B8A8E
:102120001A437B68DB8A1A437B685B681A437B68C7
:102130005B7ADB041A433B682C331B010B445A6067
:102140001B497B68DA697B689B7A5B041A437B686E
:102150001B7B9B041A437B68DB7ADB041A433B68D6
:102160001B010B4403F532731A603B68D9B27B68DC
:102170005A8A7B681B8B084611461A4600F0B4F851
:102180007B689B780B4839681A46FFF7D5FD7B685A
:102190005B78094839681A46FFF7CEFD7B681B78E3
:1021A000064839681A46FFF7C7FD1037BD4680BD9F
:1021B00000C008404CC0084054C0084018C0084047
:1021C00080B584B000AF78607B681B7835480B2100
:1021D0001A46FFF7B1FD7B681B78002B02D0012B5C
:1021E00045D05BE00023FB603DE0FB6803F110019C
:1021F0007868FA6813465B001344034401331B7884
:1022000029481A46FFF798FD264BDA6BFB685B00FE
:10221000032101FA03F3DB431340BB607968FA68DA
:1022200013465B0013440B4402331B781A46FB68C9
:102230005B0002FA03F3BA681343BB60194BBA6838
:10224000DA63FB6803F110017868FA6813465B00F3
:102250001344034403331B7814481A46FFF76CFDFC
:10226000FB680133FB60FB68072BBED916E0002337
:10227000FB600FE07968FA6813465B0013440B4477
:1022800001331B780848F9681A46FFF755FDFB68CB
:102290000133FB60FB680F2BECD900BF1037BD4644
:1022A00080BD00BF00C0084054C008403CC008408A
:1022B00080B483B000AFF871B9717A713B7109498C
:1022C000FB79B8797A79920110433A795203024343
:1022D0002C331B010B441A600C37BD465DF8047BA0
:1022E000704700BF00C0084080B485B000AF1346FF
:1022F0000246FA710A46BA807B80184AFB792C3371
:102300001B0113445B6823F47F6323F00F03FB601E
:10231000BB88FA681343FB60104AFB792C331B011E
:102320001344FA685A600D4AFB791B01134403F504
:1023300032731B681B0C1B04FB607B88FA68134319
:10234000FB60064AFB791B01134403F53273FA68FC
:102350001A601437BD465DF8047B704700C0084022
:1023600080B483B000AF7860044B7A6802F00F024B
:102370001A630C37BD465DF8047B704700C0084007
:1023800080B400AF00BF0A4B1B6D03F02003002B8D
:10239000F9D1074B01225A6100BF054B1B6D03F0B9
:1023A0002003002BF9D1BD465DF8047B704700BFC8
:1023B00000C0084080B400AF00BF0A4B1B6D03F0A3
:1023C0002003002BF9D1074B02225A6100BF054BB5
:1023D0001B6D03F02003002BF9D1BD465DF8047B93
:1023E000704700BF00C0084080B400AF00BF0A4B78
:1023F0001B6D03F02003002BF9D1074B08225A6113
:1024000000BF054B1B6D03F02003002BF9D1BD4627
:102410005DF8047B704700BF00C0084080B483B003
:1024200000AF374B0022DA64354B364A5A64344BDE
:10243000334AD26842F00102DA6000BF304B1B6DB4
:1024400003F02003002BF9D12D4B0A225A612C4BAB
:1024500000221A602A4B00229A60294B0022DA607F
:10246000274B00221A61264B00229A61244B00223E
:102470009A63234B0022DA63214B00225A65002322
:102480007B6018E01E4A7B682C331B01134400223A
:102490001A601B4A7B682C331B01134400225A60CC
:1024A000174A7B681B01134403F5327300221A603C
:1024B0007B6801337B607B680F2BE3D900237B6053
:1024C0000FE00F4B7A684032002143F832100C4A7B
:1024D0007B684033DB00134400225A607B68013381
:1024E0007B607B680F2BECD900BF054B1B6D03F0A5
:1024F0002003002BF9D10C37BD465DF8047B7047F3
:1025000000C00840FFFF7F0080B487B000AFF860D4
:10251000B9607A60FA68114B9A4208D1BB68012B06
:1025200005D87B681B0C1B04002B00D100BFBB68C7
:10253000002B02D0012B04D00AE0FB6810337B6132
:1025400003E0FB6814337B6100BF7B697A681A6023
:102550001C37BD465DF8047B704700BF0020084073
:1025600080B485B000AF786039600023FB603B68C1
:102570001B7883F00103DBB2002B08D07B689B68DB
:1025800003F00103002B02D07B6802225A603B68F3
:102590005B78002B03D0FB6843F48053FB603B68FF
:1025A0009B78002B03D0FB6843F48063FB603B689F
:1025B000DB78002B03D0FB6843F40063FB603B68CF
:1025C0001B79002B03D0FB6843F40073FB603B686E
:1025D0005B79002B03D0FB6843F48073FB603B689E
:1025E0009B79002B03D0FB6843F04003FB603B6802
:1025F000DB79002B03D0FB6843F08003FB603B6872
:102600001B7A9B00FA681343FB603B685B7A1B01F3
:10261000FA681343FB603B689B7AFA681343FB60DC
:102620007B68FA681A603B681B78002B08D07B68CF
:102630009B6803F00103002B02D17B6801225A60E2
:102640001437BD465DF8047B704700BF80B487B087
:1026500000AFF860B9607A60FA68114B9A4208D10D
:10266000BB68012B05D87B6823F0FF03002B00D14A
:1026700000BFBB68002B02D0012B04D00AE0FB682E
:1026800018337B6103E0FB681C337B6100BF7B690F
:102690007A681A601C37BD465DF8047B704700BF3E
:1026A0000020084080B483B000AF786039607B6858
:1026B0001B6C03F00103002B00D006E000BF7B6819
:1026C0005A6C3B681340002BF9D10C37BD465DF8BE
:1026D000047B704780B586B000AFF860B9607A605F
:1026E000BB68002B12D1FA68164B9A4202D1164BE6
:1026F0007B6107E0FA68154B9A4202D1144B7B616B
:1027000000E01BE07869FEF743FBB860BB685A0144
:102710007B68B2FBF3F33B613B69203B3B613B6968
:10272000DB003B613A6947F6F87313403B61F86898
:102730000421FFF7B7FFFB683A69DA601837BD4636
:1027400080BD00BF004008407007140000440840EE
:102750007017160080B483B000AF78600B46FB7032
:10276000FB78002B08D000BF7B685B6C002BFBD193
:102770007B6801221A6402E07B6800221A640C372D
:10278000BD465DF8047B704780B582B000AF7860CD
:1027900039607A681B4B9A4203D07A681A4B9A4286
:1027A00000D100BF78680221FFF77CFF7B680A2216
:1027B0005A6078680121FFF7CDFF7B681B6823F022
:1027C0001C023B681B7B1A433B685B7B1A433B68DC
:1027D0009B7B1A437B681A603B685A683B689B681E
:1027E000786811461A46FFF775FF3B681B781A4652
:1027F0007B685A6078680021FFF7ACFF0837BD4658
:1028000080BD00BF004008400044084080B582B051
:1028100000AF78607A68174B9A4203D07A68164BFB
:102820009A4200D100BF78680121FFF793FF7B68CF
:10283000EA225A607B6800221A607B680022DA6014
:102840007B6800221A617B6800225A617B68002243
:102850009A637B6840F2F9725A637B680022DA63FC
:102860007B6800225A6578680021FFF773FF0837FC
:10287000BD4680BD004008400044084080B582B09D
:1028800000AF78600B46FB7000BF7B689B6803F06D
:102890001003002BF9D078684021FFF703FFFA7886
:1028A0007B689A620837BD4680BD00BF80B487B0A0
:1028B00000AFF860B9607A60FB6803F10473DA0076
:1028C000BB6813449B007B617B697A681A601C3784
:1028D000BD465DF8047B704780B485B000AF78607A
:1028E00039607B68012B05D83B6803F07F43002BE0
:1028F00000D100BF7B68002B02D0012B03D008E081
:10290000064BFB6002E0064BFB6000BFFB683A68C9
:102910001A601437BD465DF8047B70470800084014
:102920000C00084080B582B000AF0346FB71FB7914
:10293000034800211A46FFF7B9FF0837BD4680BD9E
:102940000000084080B485B000AF78607B681B78D9
:10295000002B02D00123FB6001E00023FB607B68B9
:102960005B78002B03D0FB6843F00203FB607B68BD
:102970009B78002B03D0FB6843F00403FB60044BFF
:10298000FA681A601437BD465DF8047B704700BFD3
:102990000000084080B485B000AF7860194B5B69D7
:1029A000DBB203F00F03DBB29B00FB73154B1B691B
:1029B00003F0C0039B09DAB2FB7B1343FB737B6814
:1029C000FA7B9A700F4B1B69DBB203F03F03DAB25C
:1029D0007B685A700B4B9B69DBB223F00F03FB73D0
:1029E000084BDB6903F0F0031B09DAB2FB7B1343EE
:1029F000FB737B68FA7B1A701437BD465DF8047B65
:102A0000704700BFD0FF0FE080B400AF72B6084B34
:102A10001B68B3F1FF3F04D0054B1B685A1C044BE5
:102A20001A60034B1B681846BD465DF8047B70476F
:102A3000DC00002080B483B000AF0C4B1B68002B7F
:102A40000DD00A4B1B685A1E084B1A60074B1B68B7
:102A50007B607B68002B00D162B67B6800E00023BE
:102A600018460C37BD465DF8047B7047DC0000203B
:102A700080B483B000AF786039607B683A681A62CE
:102A80000C37BD465DF8047B704700BF80B483B04F
:102A900000AF786039607B685A693B68DB431A4055
:102AA0007B685A610C37BD465DF8047B704700BFF8
:102AB00080B584B000AFFFF7A7FF15480121FFF7ED
:102AC000E5FF13480121FFF7D3FF0023FB60114B03
:102AD0001B880F4A526A9B0007F110010B4443F810
:102AE0000C2C0C4B1B8801339AB20A4B1A807B6862
:102AF000FB60F86800F086F80346184602F066FAB4
:102B00000346BB60FFF796FF1037BD4680BD00BF90
:102B1000002000405801002080B500AFFDF76AFB9F
:102B200080BD00BF80B500AFFFF7F6FF1120052183
:102B3000FEF7C8FA24480221FEF7C4FA234801210F
:102B4000FEF7C0FA22480121FEF7B6F8214801211C
:102B5000FEF7B2F820480121FEF7AEF81F48012128
:102B6000FEF7AAF81E480121FEF7A6F81D4801212C
:102B7000FEF7A2F81C480121FEF79EF81B48012130
:102B8000FEF79AF81A480121FEF796F81948012134
:102B9000FEF792F817484FF40041FDF775FF16480D
:102BA0000121FEF789F814480121FDF76DFF064861
:102BB0000221FEF787FA11480121FEF77DF810483F
:102BC0000121FEF779F880BD0200180003001A0009
:102BD000408104000092040000A2040000430200AF
:102BE00000520400000205000003020000C20400BD
:102BF000700714006016100060062800602612009E
:102C000000D2040080B586B000AF7860164B1B6818
:102C100003F47F031B0C184602F0D4F903467B61D2
:102C2000114BDB681B0D184602F0CCF903463B61E3
:102C30000E4BFB60786802F0C9F903463869194603
:102C400002F00EF903461846F96802F0C7FA034687
:102C50007869194602F004F90346BB60BB68184660
:102C60001837BD4680BD00BFB081E00FD7A3C8C0F4
:102C700080B483B000AF0346FB71084B97F907207F
:102C80005209F97901F01F01012000FA01F143F81E
:102C900022100C37BD465DF8047B704700E100E070
:102CA00080B483B000AF03463960FB71FB79002B21
:102CB0000DD0FB79012B0AD0FB79022B07D0FB79D1
:102CC000032B04D0FB79042B01D0FB79052B094899
:102CD000FA793B68012101FA03F319461346DB0038
:102CE00013449B000344103359600C37BD465DF814
:102CF000047B70470060004080B483B000AF03469F
:102D00003960FB71FB79002B0DD0FB79012B0AD0C8
:102D1000FB79022B07D0FB79032B04D0FB79042B22
:102D200001D0FB79052B0948FA793B68012101FAAA
:102D300003F319461346DB0013449B00034410338E
:102D400019600C37BD465DF8047B70470060004099
:102D500080B400AF72B6084B1B68B3F1FF3F04D0DC
:102D6000054B1B685A1C044B1A60034B1B68184622
:102D7000BD465DF8047B7047DC00002080B483B062
:102D800000AF0C4B1B68002B0DD00A4B1B685A1E62
:102D9000084B1A60074B1B687B607B68002B00D1D7
:102DA00062B67B6800E0002318460C37BD465DF82C
:102DB000047B7047DC00002080B483B000AF7860F3
:102DC000034B7A689A610C37BD465DF8047B704707
:102DD0000000084080B483B000AF7860054B054A1E
:102DE000D1697A680A43DA610C37BD465DF8047B25
:102DF000704700BF0000084080B400AF034B1B6960
:102E00001846BD465DF8047B704700BF00000840CF
:102E100080B400AF034B1B6A1846BD465DF8047BC7
:102E2000704700BF00C0084080B400AF034B9B6AEE
:102E30001846BD465DF8047B704700BF00C00840DF
:102E400080B483B000AF7860064B7A6802F00F025E
:102E5000A03253F8223018460C37BD465DF8047B8B
:102E6000704700BF00C0084080B483B000AF7860F6
:102E7000034B7A685A640C37BD465DF8047B704793
:102E800000C0084080B483B000AF7860054B054AAD
:102E9000D16C7A680A43DA640C37BD465DF8047B6E
:102EA000704700BF00C0084080B483B000AF7860B6
:102EB000054B054AD16C7A68D2430A40DA640C3774
:102EC000BD465DF8047B704700C0084080B483B005
:102ED00000AF064BDB6C7B60044B1A6C7B681340C5
:102EE00018460C37BD465DF8047B704700C00840AB
:102EF00090B587B000AF0346FB71FB79002B36D04D
:102F0000FFF758FA00BFFFF783FF034603F01003F3
:102F1000002BF8D1FFF768FA00201421FEF7D6FF46
:102F200000200021FFF768F8484B3B613B6903F53F
:102F3000807318460821FFF78FF83B6903F59073FB
:102F400018460921FFF788F83B6903F5A073184676
:102F50000A21FFF781F83B6903F5B07318460B218E
:102F6000FFF77AF84FF48030FFF79EFF35E0FFF768
:102F700021FA00BFFFF74CFF034603F01003002BBC
:102F8000F8D1FFF731FA00201421FEF79FFF00204F
:102F90000321FFF731F82E4BFB60FB6803F58073CC
:102FA00018460821FFF758F8FB6803F59073184698
:102FB0000921FFF751F8FB6803F5A07318460A21B1
:102FC000FFF74AF8FB6803F5B07318460B21FFF7CB
:102FD00043F84FF48030FFF755FF1120FFF748FE0C
:102FE000FFF7CEF91B4B1B78002B2BD0194B00227F
:102FF0001A7000BF184B1B6A03F00203002BF9D0B4
:103000000023FB750023BB7519E0BB7D134AD35C1D
:10301000002B11D0FB7D032B0BD8FC7DBB7D18460C
:10302000FFF70EFF03469BB2013B9AB20C4B23F80D
:103030001420FB7D0133FB75BB7D0133BB75BB7D6C
:103040000F2BE2D91C37BD4690BD00BF7455000060
:10305000745700004C00002000C0084030550000AC
:103060002C01002080B500AFFFF772FE00F066F87B
:1030700000F02CF80120FFF73BFF00F007F81E20BE
:10308000FFF7F6FDFFF77AFE80BD00BF80B500AF09
:103090000C48FFF757FC0C48FDF77AFE0246134632
:1030A0005B00134400201946FFF716FC4FF0FF3079
:1030B000FFF782FE0220FFF78DFE0120FFF732FCB2
:1030C00080BD00BF745900006016100080B582B04A
:1030D00000AF17480121FEF745FE164B7B607B6869
:1030E000C03318460621FEF7B7FF7B68E033184669
:1030F0000721FEF7B1FF7B68203318460121FEF758
:10310000ABFF7B68403318460221FEF7A5FF0A4853
:10311000FFF756F800201E21FEF7D8FE0020002100
:10312000FEF76AFFFFF72CF90837BD4680BD00BFE8
:1031300078590000B85900004055000080B500AF34
:103140000C480D49FDF7E8F90A4800210022002348
:10315000FDF796F90948002100220123FDF790F9B7
:1031600006480749FDF746F902480A210022FDF703
:10317000ADF980BD00100040B85B000000140040B5
:10318000D05B000080B58AB000AFFFF7E1FDFFF72C
:103190009DFE034603F48033002B42D04FF4803071
:1031A000FFF762FEA74B00221A702EE0A54B1B789A
:1031B000DBB2A54AD35C83F00103DBB2002B00D065
:1031C0001CE0FFF731FE78629E4B1B78DBB21A469B
:1031D0009E4B796A43F822109A4B1B78DBB21A4651
:1031E0009B4B53F822207B6A9A4207D2954B1B785F
:1031F000DBB21A46964B796A43F82210914B1B7842
:10320000DBB20133DAB28F4B1A708E4B1B78DBB214
:103210000F2BCBD98F4B1B68002B02D08D4B1B681B
:103220009847FFF753FE034603F47063002B52D018
:103230004FF47060FFF718FE874B1B68012B09D114
:1032400001200B2100220023FEF70AFC824B002202
:103250001A6008E001200B2104220023FEF700FC85
:103260007D4B01221A60774B00221A702EE0754BBD
:103270001B78DBB2744AD35C83F00103DBB2002B12
:1032800000D01CE0FFF7D0FD78626E4B1B78DBB2FC
:103290001A466E4B796A43F822106A4B1B78DBB2F0
:1032A0001A466B4B53F822207B6A9A4207D2654B31
:1032B0001B78DBB21A46664B796A43F82210614BE1
:1032C0001B78DBB20133DAB25E4B1A705D4B1B78B0
:1032D000DBB20F2BCBD9FFF7F9FD034603F08003D8
:1032E000002B00F086808020FFF7BEFD5B4B1B6843
:1032F000002B0BD15A4B3B623B6AE0331846072147
:10330000FEF7AAFE554B01221A6072E0554BFB6195
:10331000FB69E03318460721FEF79EFE524B1B68FF
:10332000524A5421D154504B1B685A1C504B83FBBA
:1033300002135911D317CB1A642101FB03F3D31ADB
:10334000494A1360454B00221A60032000210422E1
:103350000123FEF785FB0320032104220123FEF74E
:103360007FFB414B1B68414A2B21D1543E4B1B68CC
:103370005A1C3F4B83FB02135911D317CB1A6421FC
:1033800001FB03F3D31A384A13603123BB61364B78
:103390001B68BA69D1B2354AD154334B1B685A1CE9
:1033A000334B83FB02135911D317CB1A642101FB52
:1033B00003F3D31A2C4A136000237B612A4B1B684A
:1033C0007A69D1B2294AD154274B1B685A1C284B21
:1033D00083FB02135911D317CB1A642101FB03F3AA
:1033E000D31A214A1360234B224A926B42F0020205
:1033F0009A63FFF76BFD034603F00203002B07D02F
:103400000220FFF731FD1C4B1B685A1C1A4B1A6037
:10341000FFF75CFD034603F00403002B49D00420B2
:10342000FFF722FD154B1B68002B2BD1144B3B6182
:103430003B69403318460221FEF70EFE0F4B012276
:103440001A6036E0E800002030550000EC00002053
:103450000C000020E00000200800002048010020AF
:10346000E45B0000E45D0000CC0100206801002066
:103470001F85EB51004008405C0100204001002006
:10348000E45F0000334BFB60FB68403318460221C9
:10349000FEF7E2FD304B00221A60032001210422D6
:1034A0000123FEF7DDFA0320022104220123FEF7A7
:1034B000D7FAFFF70BFD034603F04003002B2FD094
:1034C0004020FFF7D1FC254B1B78DBB25A1C244B64
:1034D0001340002B03DA013B63F001030133DAB23E
:1034E0001E4B1A701D4B1B78DBB2012B0CD11D4BF0
:1034F000BB60BB68C03318460621FEF7ADFD042053
:103500000321FFF7F9FB0BE0174B7B607B68C033AF
:1035100018460621FEF7A0FD04200321FFF7C0FB9B
:10352000124B1B78DBB2002B03D1114B00221A7017
:103530000BE00E4B1B78DBB2012B03D10C4B0122AD
:103540001A7002E00A4BFF221A70FFF717FC2837A7
:10355000BD4680BDE461000040010020E70000207E
:1035600001000080E4630000E4650000E400002046
:10357000E500002080B582B000AFFFF7E9FB3C4BCF
:10358000DB697B603B4B1B684B2B03DD0420032175
:10359000FFF7B2FB384B1B68384A4121D154364BF8
:1035A0001B685A1C364B83FB02135911D317CB1AD5
:1035B000642101FB03F3D31A2F4A13602E4B1B68BF
:1035C0002E4A2221D1542C4B1B685A1C2C4B83FBB6
:1035D00002135911D317CB1A642101FB03F3D31A39
:1035E000254A1360244B1B68244A0021D154224BE6
:1035F0001B685A1C224B83FB02135911D317CB1A99
:10360000642101FB03F3D31A1B4A13601A4B1B6896
:103610001A4A0021D154184B1B685A1C184B83FBC3
:1036200002135911D317CB1A642101FB03F3D31AE8
:10363000114A1360134B134A926B42F002029A63D1
:103640000C4B00221A60FFF7D7FB02467B68134041
:1036500003F00203002B05D00220FFF7ADFB0A4B5D
:1036600001221A70FFF78AFB0837BD4680BD00BFF4
:10367000000008405C010020CC010020680100200F
:103680001F85EB5100400840E600002080B483B065
:1036900000AF7860044B7A68C3F81C210C37BD4634
:1036A0005DF8047B704700BF0060004080B584B0C7
:1036B00002AF39600146F971BA717B71FA79BB7951
:1036C00079790091397C0191104639683A68FEF7A2
:1036D00061F90837BD4680BD80B400AF72B6084BB3
:1036E0001B68B3F1FF3F04D0054B1B685A1C044B09
:1036F0001A60034B1B681846BD465DF8047B704793
:10370000DC00002080B483B000AF0C4B1B68002BA2
:103710000DD00A4B1B685A1E084B1A60074B1B68DA
:103720007B607B68002B00D162B67B6800E00023E1
:1037300018460C37BD465DF8047B7047DC0000205E
:1037400090B587B002AF17480121FDF7B5FA032005
:10375000052101220123FEF783F9012300930320B1
:10376000052101220123FFF7A1FF022005210822E4
:103770000123FEF775F90220042108220123FEF738
:103780006FF9094B03229A63084B3C460FCB84E840
:103790000F003B4604481946FEF792FA1437BD461F
:1037A00090BD00BF00C2040000A40040E467000018
:1037B00080B400AF084B3C225A62074B01225A608A
:1037C00000BF054B9B6A03F04003002BF9D0BD46B8
:1037D0005DF8047B704700BF00A4004080B400AFD8
:1037E000084B3A225A62074B01225A6000BF054B30
:1037F0009B6A03F04003002BF9D0BD465DF8047BC3
:10380000704700BF00A4004080B582B000AF024600
:103810000B46FA80BB80FFF7E1FF114B40221A6391
:103820000F4BFA885A6200BF0D4B9B6A03F04003AE
:10383000002BF9D00A4B40221A63094BBA885A620E
:1038400000BF074B9B6A03F04003002BF9D0044BE9
:1038500040221A63024B02225A600837BD4680BDDF
:1038600000A4004080B582B000AF02460B46FA804B
:10387000BB80FFF79DFF114B40221A630F4BFA8864
:103880005A6200BF0D4B9B6A03F04003002BF9D036
:103890000A4B40221A63094BBA885A6200BF074B91
:1038A0009B6A03F04003002BF9D0044B40221A63BB
:1038B000024B02225A600837BD4680BD00A400407A
:1038C00080B582B000AF0346FB711E4B00221A6028
:1038D000FFF784FF1C4B40221A631B4BFA795A6294
:1038E00000BF194B9B6A03F04003002BF9D0164B25
:1038F00040221A63144B01225A60134B3B225A6236
:1039000000BF114B9B6A03F04003002BF9D00E4B14
:1039100040221A6300BF0C4BDB6803F48073002B5A
:10392000F9D0094BDA69074B1A60074B08225A6035
:10393000054B02225A60034B1B6818460837BD46E8
:1039400080BD00BF2402002000A4004080B582B0EA
:1039500000AF0346FB711E4B00221A60FFF728FFE1
:103960001C4B40221A631B4BFA795A6200BF194B59
:103970009B6A03F04003002BF9D0164B40221A63D8
:10398000144B01225A60134B3D225A6200BF114B67
:103990009B6A03F04003002BF9D00E4B40221A63C0
:1039A00000BF0C4BDB6803F48073002BF9D0094B8C
:1039B000DA69074B1A60074B08225A60054B02224E
:1039C0005A60034B1B6818460837BD4680BD00BFD0
:1039D0002402002000A4004080B582B000AF164B46
:1039E0009B6803F00103002B02D0134B20225A6086
:1039F00000237B600EE00220052108220023FEF751
:103A00002FF80220052108220123FEF729F87B6800
:103A100001337B607B68082BEDDD00233B6002E017
:103A20003B6801333B603A6840F2DB539A42F7DD72
:103A30000837BD4680BD00BF00A4004080B500AF80
:103A4000FFF77EFEFFF7C8FF2020FC21FFF70AFFEB
:103A500021206021FFF706FF24200021FFF702FF4D
:103A600023200821FFF7FEFE22202021FFF7FAFE87
:103A700025208021FFF7C8FE20206721FFF7C4FE24
:103A800021207021FFF7C0FE23200021FFF7BCFE9C
:103A900032200721FFF7B8FE33200721FFF7B4FEDD
:103AA00034200321FFF7B0FE3020A621FFF7ACFE43
:103AB00022200821FFF7A8FE134B01221A602F20B5
:103AC000FFF744FF0246114B1A602E20FFF73EFF1E
:103AD00002460F4B1A600D4B1B681A020C4B1B68F9
:103AE0001344184601F06EFA02460A4B1A60094B5D
:103AF0001B6818464FF0824101F070FB03461A46DE
:103B0000044B1A60DBE700BFE8010020D40100206D
:103B1000D00100205401002090B585B002AFFFF71E
:103B2000DBFD0220FFF7B2FD0023009303200521F7
:103B300001220123FFF7BAFD012300930320052191
:103B400001220123FFF7B2FD2820FFF7B9FE02464C
:103B5000A74B1A602920FFF7B3FE0246A54B1A6057
:103B6000A44B1B681A02A24B1B681A44A24B1A6092
:103B70002A20FFF7A5FE02469D4B1A602B20FFF777
:103B80009FFE02469B4B1A609A4B1B681A02984B89
:103B90001B681A44994B1A602C20FFF791FE0246CD
:103BA000934B1A602D20FFF78BFE0246914B1A6053
:103BB000904B1B681A028E4B1B681A44904B1A607C
:103BC0008D4B1B68002B05D08B4B1A684FF2176387
:103BD0009A420BD9884B1B68002B00F0A980864BBA
:103BE0001A6840F6B7339A4200F2A280834B1B68F2
:103BF000002B00F09D80814B1A684FF6FE739A42AD
:103C000000F296807E4B1A6841F658339A4240F291
:103C10008F807B4B1A6844F273039A4200F28880CB
:103C2000784B1B68012B40F08380774801210022EC
:103C3000FEF76AFC0320002103220123FDF710FF99
:103C40000320032103220123FDF70AFF03200121A2
:103C500003220123FDF704FF032002210322012395
:103C6000FDF7FEFE694B00221A60664B00221A60C7
:103C7000674B01221A60674B01221A60664B1B6872
:103C8000664A5021D154644B1B685A1C644B83FB19
:103C900002135911D317CB1A642101FB03F3D31A72
:103CA0005D4A13605C4B1B685C4A2B21D1545A4B14
:103CB0001B685A1C5A4B83FB02135911D317CB1A9A
:103CC000642101FB03F3D31A534A1360524B1B6860
:103CD000524A0021D154504B1B685A1C504B83FB55
:103CE00002135911D317CB1A642101FB03F3D31A22
:103CF000494A1360484B1B68484A0021D154464B3F
:103D00001B685A1C464B83FB02135911D317CB1A5D
:103D1000642101FB03F3D31A3F4A13604148032196
:103D2000FDF7D0F9404B404A926B42F002029A6391
:103D3000314B1A6840F6B8339A4240F2ED802E4B70
:103D40001A6841F26F739A4200F2E6802B4B1B68AF
:103D5000002B00F0E180294B1A684FF6FE739A425F
:103D600000F2DA80264B1A6843F2DC739A4240F282
:103D7000D380234B1A6844F267239A4200F2CC8026
:103D8000234B1B68012B40F0C7801F4801217D2277
:103D9000FEF7BAFB254B1B68012B0CD10320002139
:103DA00003220023FDF75CFE0320032104220123EC
:103DB000FDF756FE0BE00320002104220123FDF74E
:103DC0004FFE0320032104220123FDF749FE184B77
:103DD0001B68012B2ED10320012104220023FDF7B3
:103DE0003FFE0320022104220123FDF739FE2DE0CE
:103DF000F0010020F401002014020020080200203D
:103E000028020020E801002000200840FC010020DA
:103E100018020020EC010020CC01002068010020E5
:103E20001F85EB5103001A000040084048010020A4
:103E3000400100200320012104220123FDF710FE90
:103E40000320022104220123FDF70AFE624B0F2208
:103E50001A60624B01221A60614B00221A60614BAA
:103E600001221A60604B1B68604A5021D1545E4B9E
:103E70001B685A1C5E4B83FB02135911D317CB1AD4
:103E8000642101FB03F3D31A574A1360564B1B6896
:103E9000564A2B21D154544B1B685A1C544B83FB5C
:103EA00002135911D317CB1A642101FB03F3D31A60
:103EB0004D4A13604C4B1B684C4A0121D1544A4B6C
:103EC0001B685A1C4A4B83FB02135911D317CB1A98
:103ED000642101FB03F3D31A434A1360424B1B686E
:103EE000424A0521D154404B1B685A1C404B83FB6E
:103EF00002135911D317CB1A642101FB03F3D31A10
:103F0000394A13603B480321FDF7DCF83A4B3A4A43
:103F1000926B42F002029A63384B1A6841F2707356
:103F20009A4240F2E980354B1A6842F20F739A4286
:103F300000F2E280324B1B68002B00F0DD80304B3A
:103F40001A684FF6FE739A4200F2D6802D4B1A681B
:103F500043F2C8239A4240F2CF802A4B1B68B3F544
:103F60007A5F80F0C9801D4B1B68012B40F0C48034
:103F700025480121FA22FEF7C7FA244B1B68012BC2
:103F80000CD10320002104220023FDF769FD03204A
:103F9000032104220123FDF763FD0BE00320002130
:103FA00004220123FDF75CFD0320032104220123E9
:103FB000FDF756FD164B1B68012B2BD10320012169
:103FC00004220023FDF74CFD0320022104220123DB
:103FD000FDF746FD2AE000BFFC01002000020020A2
:103FE00018020020E8010020CC0100206801002018
:103FF0001F85EB5103001A00004008401402002006
:10400000080200202802002000200840480100206B
:10401000400100200320012104220123FDF720FD9F
:104020000320022104220123FDF71AFDBC4B1E22AE
:104030001A60BC4B00221A60BB4B01221A60BB4BBA
:1040400001221A60BA4B1B68BA4A5021D154B84BAE
:104050001B685A1CB84B83FB02135911D317CB1A98
:10406000642101FB03F3D31AB14A1360B04B1B6800
:10407000B04A2B21D154AE4B1B685A1CAE4B83FB6C
:1040800002135911D317CB1A642101FB03F3D31A7E
:10409000A74A1360A64B1B68A64A0321D154A44B20
:1040A0001B685A1CA44B83FB02135911D317CB1A5C
:1040B000642101FB03F3D31A9D4A13609C4B1B68D8
:1040C0009C4A0021D1549A4B1B685A1C9A4B83FB83
:1040D00002135911D317CB1A642101FB03F3D31A2E
:1040E000934A136095480321FCF7ECFF944B944AE4
:1040F000926B42F002029A63924B1A6841F6DC63BB
:104100009A4240F2C9808F4B1A6843F2AF639A42D9
:1041100000F2C2808C4B1B68002B00F0BD808A4BE4
:104120001A684FF6FE739A4200F2B680874B1A68FF
:1041300042F210739A4240F2AF80844B1A6843F205
:10414000C7239A4200F2A880774B1B68012B40F0EE
:10415000A3807F4801214FF4FA72FEF7D5F97D4B19
:104160001B68012B0CD10320002104220023FDF742
:1041700077FC0320032104220123FDF771FC0BE0EF
:104180000320002104220123FDF76AFC0320032100
:1041900004220123FDF764FC6F4B1B68012B0CD13B
:1041A0000320012104220023FDF75AFC03200221F1
:1041B00004220123FDF754FC0BE00320012104221B
:1041C0000123FDF74DFC0320022104220123FDF70A
:1041D00047FC534B2D221A60534B00221A60514B5F
:1041E00001221A60524B1B68524A5021D154504B45
:1041F0001B685A1C504B83FB02135911D317CB1A5F
:10420000642101FB03F3D31A494A1360484B1B682E
:10421000484A2B21D154464B1B685A1C464B83FB02
:1042200002135911D317CB1A642101FB03F3D31ADC
:104230003F4A13603E4B1B683E4A0421D1543C4B1D
:104240001B685A1C3C4B83FB02135911D317CB1A22
:10425000642101FB03F3D31A354A1360344B1B6806
:10426000344A0521D154324B1B685A1C324B83FB14
:1042700002135911D317CB1A642101FB03F3D31A8C
:104280002B4A13602D480321FCF71CFF2C4B2C4AB2
:10429000926B42F002029A632A4B1A684EF27863DC
:1042A0009A4240F2F380274B1A684FF217639A4202
:1042B00000F2EC80244B1B68002B00F0E780224BBF
:1042C0001A684FF6FE739A4200F2E0801F4B1A689C
:1042D00043F6A4039A4240F2D9801C4B1A6843F675
:1042E0001B639A4200F2D2801C4B1B68012B40F0EA
:1042F000CD80174801217D22FEF706F9154B1B687A
:10430000012B2DD10320002104220123FDF7A8FB5E
:104310000320032104220023FDF7A2FB2CE000BFB1
:10432000FC010020000200200402002018020020EE
:10433000CC010020680100201F85EB5103001A000A
:10434000004008401402002008020020280200203B
:10435000002008404801002040010020EC0100201E
:104360000320002104220123FDF77AFB032003210F
:1043700004220123FDF774FB744B1B68012B0CD145
:104380000320012104220123FDF76AFB03200221FF
:1043900004220023FDF764FB0BE00320012104222B
:1043A0000123FDF75DFB0320022104220123FDF719
:1043B00057FB674B6FF00E021A60664B00221A60C3
:1043C000654B00221A60654B00221A60644B012283
:1043D0001A60644B01221A60634B1B68634A5021C8
:1043E000D154614B1B685A1C614B83FB021359115A
:1043F000D317CB1A642101FB03F3D31A5A4A136073
:10440000594B1B68594A2D21D154574B1B685A1CD4
:10441000574B83FB02135911D317CB1A642101FBAD
:1044200003F3D31A504A13604F4B1B684F4A0121C4
:10443000D1544D4B1B685A1C4D4B83FB0213591131
:10444000D317CB1A642101FB03F3D31A464A136036
:10445000454B1B68454A0521D154434B1B685A1CE8
:10446000434B83FB02135911D317CB1A642101FB71
:1044700003F3D31A3C4A13603E480321FCF722FEA3
:104480003D4B3D4A926B42F002029A633B4B1A68E5
:104490004CF608739A4240F2F180384B1A684FF696
:1044A000E7539A4200F2EA80354B1B68002B00F07C
:1044B000E580334B1A684FF6FE739A4200F2DE80B5
:1044C000304B1A6842F210739A4240F2D7802D4B5B
:1044D0001A6843F61B639A4200F2D080204B1B6897
:1044E000012B40F0CB8028480121FA22FEF70CF87E
:1044F000264B1B68012B0CD1032000210422012331
:10450000FDF7AEFA0320032104220023FDF7A8FAE9
:104510000BE00320002104220123FDF7A1FA032070
:10452000032104220123FDF79BFA084B1B68012B92
:104530002ED10320012104220123FDF791FA03204B
:10454000022104220023FDF78BFA2DE04001002018
:10455000FC010020EC01002038020020180200209D
:1045600034020020E8010020CC0100206801002076
:104570001F85EB5103001A00004008401402002080
:1045800008020020280200200020084048010020E6
:104590000320012104220123FDF762FA03200221F6
:1045A00004220123FDF75CFAB14B6FF01D021A6083
:1045B000B04B00221A60B04B00221A60AF4B0122B0
:1045C0001A60AF4B01221A60AE4B1B68AE4A5021F5
:1045D000D154AC4B1B685A1CAC4B83FB02135911D2
:1045E000D317CB1A642101FB03F3D31AA54A136036
:1045F000A44B1B68A44A2D21D154A24B1B685A1C02
:10460000A24B83FB02135911D317CB1A642101FB70
:1046100003F3D31A9B4A13609A4B1B689A4A0321EF
:10462000D154984B1B685A1C984B83FB02135911A9
:10463000D317CB1A642101FB03F3D31A914A1360F9
:10464000904B1B68904A0021D1548E4B1B685A1C1A
:104650008E4B83FB02135911D317CB1A642101FB34
:1046600003F3D31A874A136089480321FCF72AFD14
:10467000884B884A926B42F002029A63864B1A6812
:104680004CF620339A4240F2CC80834B1A684DF2AC
:10469000D7639A4200F2C580804B1B68002B00F064
:1046A000C0807E4B1A684FF6FE739A4200F2B980C2
:1046B0007B4B1B68B3F5FA5F40F2B380784B1A6806
:1046C00043F2C7239A4200F2AC806D4B1B68012B6A
:1046D00040F0A780734801214FF4FA72FDF714FFF0
:1046E000714B1B68012B0CD10320002104220123F4
:1046F000FDF7B6F90320032104220023FDF7B0F9EA
:104700000BE00320002104220123FDF7A9F9032077
:10471000032104220123FDF7A3F9644B1B68012B3D
:104720000CD10320012104220123FDF799F9032074
:10473000022104220023FDF793F90BE0032001215D
:1047400004220123FDF78CF9032002210422012316
:10475000FDF786F9464B6FF02C021A60484B002299
:104760001A60444B01221A60434B00221A60454BE9
:104770001B68454A5021D154424B1B685A1C434B7D
:1047800083FB02135911D317CB1A642101FB03F3E6
:10479000D31A3C4A13603B4B1B683B4A2D21D15432
:1047A000384B1B685A1C394B83FB02135911D31722
:1047B000CB1A642101FB03F3D31A324A1360314B45
:1047C0001B68314A0421D1542E4B1B685A1C2F4BB5
:1047D00083FB02135911D317CB1A642101FB03F396
:1047E000D31A284A1360274B1B68274A0521D15446
:1047F000244B1B685A1C254B83FB02135911D317FA
:10480000CB1A642101FB03F3D31A1E4A136020481C
:104810000321FCF757FC1F4B1E4A926B42F0020229
:104820009A63234B234A1A60164B1B68164A54217D
:10483000D154144B1B685A1C144B83FB021359119F
:10484000D317CB1A642101FB03F3D31A0D4A13606B
:10485000174B1B6818464FF0000100F0BDFD0346E2
:10486000002B29D0074B1B68074A2B21D1542EE07F
:10487000FC01002034020020E8010020EC010020AF
:1048800038020020CC010020680100201F85EB5178
:1048900003001A0000400840140200200802002013
:1048A000280200200020084048010020400100208C
:1048B0005401002000000E423B4B1B683B4A2D2157
:1048C000D1543B4B1B6883F00042394B1A60364B86
:1048D0001B685A1C374B83FB02135911D317CB1A91
:1048E000642101FB03F3D31A2F4A1360304B1B687A
:1048F000184600F085FD03467B607B68642202FB5E
:1049000003F37B602A4B1B683B6038682A4900F040
:10491000B1FB03463B60786800F058FB03463868FB
:10492000194600F09DFA03463B60214B1B68184670
:1049300000F066FD03467B601B4B1B687A68D1B2B2
:104940001A4AD154184B1B685A1C1A4B83FB02138A
:104950005911D317CB1A642101FB03F3D31A124A5E
:104960001360114B1C68386800F070FD0346DAB222
:104970000E4B1A550C4B1B685A1C0E4B83FB021333
:104980005911D317CB1A642101FB03F3D31A064A3A
:1049900013600A4B094A926B42F002029A63FEF7D7
:1049A000B1FE0C37BD4690BDCC010020680100204F
:1049B000540100201F85EB510000C8420040084010
:1049C00080B483B000AF0346FB71084B97F9072012
:1049D0005209F97901F01F01012000FA01F143F8B1
:1049E00022100C37BD465DF8047B704700E100E003
:1049F00080B500AF03200021FCF794FF02200021C6
:104A0000FCF790FF0420032104220023FDF728F87F
:104A10000320062104220023FDF722F802200621AC
:104A200000220023FDF71CF80220072100220023AA
:104A3000FDF716F80220012100220023FDF710F8EF
:104A40000220022100220023FDF70AF803200021A2
:104A500004220023FDF704F803200121042200238F
:104A6000FCF7FEFF0320022104220023FCF7F8FFDD
:104A70000320032104220023FCF7F2FF0220082177
:104A800000220023FCF7ECFF022009210022002372
:104A9000FCF7E6FF02200A2100220023FCF7E0FFDA
:104AA00002200B2100220023FCF7DAFF0B20FFF786
:104AB00087FF80BD80B582B000AF0C4B1B687B6068
:104AC0003B461846FDF766FF7B681B0E0F2B0AD985
:104AD0003B78032B07D1064B054A126822F050029F
:104AE00042F010021A600837BD4680BDFC81E00F1D
:104AF000C0800C4080B500AFFFF7DCFFFEF712F876
:104B0000022000F051F8FFF773FF00F02BF9FEF7D9
:104B100095FF00F07FF8FEF7A5FA00F05BF8FCE7E0
:104B200080B400AF72B6084B1B68B3F1FF3F04D0EE
:104B3000054B1B685A1C044B1A60034B1B68184634
:104B4000BD465DF8047B7047DC00002080B483B074
:104B500000AF0C4B1B68002B0DD00A4B1B685A1E74
:104B6000084B1A60074B1B687B607B68002B00D1E9
:104B700062B67B6800E0002318460C37BD465DF83E
:104B8000047B7047DC00002080B400AF054B054A71
:104B9000126922F004021A6130BFBD465DF8047B41
:104BA000704700BF00ED00E080B582B000AF7860D4
:104BB000FFF7B6FF064B7A6853F82230591C044BB6
:104BC0007A6843F82210FFF7C1FF0837BD4680BD61
:104BD0004002002080B500AF0D4B1B68002B00D0B9
:104BE00015E00B4B5B68002B02D0FFF7CDFF0EE00A
:104BF000074B9B68002B03D00120FCF757FD06E014
:104C0000034BDB68002B02D00120FCF79DFD80BD2B
:104C10004002002080B584B000AF26480221FCF796
:104C200051FA25480121FCF747F824480121FCF7F7
:104C300043F823480121FCF73FF803200621042212
:104C40000023FCF70DFF0320072104220023FCF7BB
:104C500007FF01200B2104220023FCF701FF194864
:104C600000214FF4FA72FDF74FFC16480121002293
:104C7000FDF74AFC134800210122FDF7E7FC11482B
:104C800001210122FDF7E2FC0E4B40F203121A64EF
:104C90000D4A3B1D1068516803C31189927A19802F
:104CA0009A703B1D07481946FDF75AFC1037BD4660
:104CB00080BD00BF02001800004302006026120001
:104CC00000D2040000200840F467000080B483B0E4
:104CD00000AF0346FB71084B97F907205209F97999
:104CE00001F01F01012000FA01F143F822100C37F6
:104CF000BD465DF8047B704700E100E080B400AF82
:104D000072B6084B1B68B3F1FF3F04D0054B1B681C
:104D10005A1C044B1A60034B1B681846BD465DF8CD
:104D2000047B7047DC00002080B483B000AF0C4BE4
:104D30001B68002B0DD00A4B1B685A1E084B1A60CB
:104D4000074B1B687B607B68002B00D162B67B68D9
:104D500000E0002318460C37BD465DF8047B704721
:104D6000DC00002080B584B000AF18480321FCF7B8
:104D7000A9F91748FDF74AFD3B4600221A600433A3
:104D800000221A60043300221A60043300221A60E1
:104D900004334FF41653BB603B460D481946FDF7EC
:104DA000F3FC0B4B02225A65094B094A526842F048
:104DB00004025A600320042104220123FCF750FE60
:104DC0001820FFF783FF1037BD4680BD03001A008F
:104DD0000040084080B582B000AFFFF78FFF194B4D
:104DE00001225A631DE0184B1B68184AD35CFB7103
:104DF000FB7914481946FDF741FD134B1B68134A14
:104E00000021D154104B1B685A1C114B83FB021319
:104E10005911D317CB1A642101FB03F3D31A0A4AA1
:104E20001360094B1A680B4B1B689A42DBD1054B88
:104E3000044A926B22F002029A63FFF775FF08376B
:104E4000BD4680BD004008404401002068010020AC
:104E50001F85EB51CC01002080F0004002E000BF34
:104E600081F0004142001FBF5FEA410392EA030F55
:104E70007FEA226C7FEA236C6AD04FEA1262D2EB9F
:104E80001363C1BFD218414048404140B8BF5B42A4
:104E9000192B88BF704710F0004F40F4000020F03D
:104EA0007F4018BF404211F0004F41F4000121F053
:104EB0007F4118BF494292EA030F3FD0A2F101029D
:104EC00041FA03FC10EB0C00C3F1200301FA03F1DB
:104ED00000F0004302D5494260EB4000B0F5000FFE
:104EE00013D3B0F1807F06D340084FEA310102F1BD
:104EF0000102FE2A51D2B1F1004F40EBC25008BF6F
:104F000020F0010040EA03007047490040EB000038
:104F100010F4000FA2F10102EDD1B0FA80FCACF167
:104F2000080CB2EB0C0200FA0CF0AABF00EBC25066
:104F300052421843BCBFD0401843704792F0000F54
:104F400081F4000106BF80F400000132013BB5E7A7
:104F50004FEA41037FEA226C18BF7FEA236C21D01D
:104F600092EA030F04D092F0000F08BF0846704782
:104F700090EA010F1CBF0020704712F07F4F04D150
:104F8000400028BF40F00040704712F100723CBF63
:104F900000F50000704700F0004343F0FE4040F48D
:104FA000000070477FEA226216BF08467FEA23634B
:104FB0000146420206BF5FEA412390EA010F40F436
:104FC000800070474FF0000304E000BF10F0004382
:104FD00048BF40425FEA000C08BF704743F0964369
:104FE00001464FF000001CE050EA010208BF704784
:104FF0004FF000030AE000BF50EA010208BF70470B
:1050000011F0004302D5404261EB41015FEA010C1F
:1050100002BF84460146002043F0B64308BFA3F117
:105020008053A3F50003BCFA8CF2083AA3EBC253F9
:1050300010DB01FA02FC634400FA02FCC2F1200218
:10504000BCF1004F20FA02F243EB020008BF20F04F
:105050000100704702F1200201FA02FCC2F12002B5
:1050600050EA4C0021FA02F243EB020008BF20EAAA
:10507000DC7070474FF0FF0C1CEAD0521EBF1CEAD8
:10508000D15392EA0C0F93EA0C0F6FD01A4480EAC6
:10509000010C400218BF5FEA41211ED04FF00063AF
:1050A00043EA501043EA5111A0FB01310CF00040DB
:1050B000B1F5000F3EBF490041EAD3715B0040EA01
:1050C000010062F17F02FD2A1DD8B3F1004F40EBD1
:1050D000C25008BF20F00100704790F0000F0CF0A4
:1050E000004C08BF49024CEA502040EA51207F3A68
:1050F000C2BFD2F1FF0340EAC250704740F4000043
:105100004FF00003013A5DDC12F1190FDCBF00F033
:1051100000407047C2F10002410021FA02F1C2F1E1
:10512000200200FA02FC5FEA310040F1000053EA7D
:105130004C0308BF20EADC70704792F0000F00F0CB
:10514000004C02BF400010F4000F013AF9D040EAD1
:105150000C0093F0000F01F0004C02BF490011F465
:10516000000F013BF9D041EA0C018FE70CEAD15363
:1051700092EA0C0F18BF93EA0C0F0AD030F0004CE3
:1051800018BF31F0004CD8D180EA010000F0004097
:10519000704790F0000F17BF90F0004F084691F055
:1051A000000F91F0004F14D092EA0C0F01D142028F
:1051B0000FD193EA0C0F03D14B0218BF084608D158
:1051C00080EA010000F0004040F0FE4040F40000A2
:1051D000704740F0FE4040F4400070474FF0FF0C35
:1051E0001CEAD0521EBF1CEAD15392EA0C0F93EA7C
:1051F0000C0F69D0A2EB030280EA010C49024FEACE
:10520000402037D04FF0805343EA111143EA101386
:105210000CF000408B4238BF5B0042F17D024FF43E
:10522000000C8B4224BF5B1A40EA0C00B3EB510F19
:1052300024BFA3EB510340EA5C00B3EB910F24BF02
:10524000A3EB910340EA9C00B3EBD10F24BFA3EB87
:10525000D10340EADC001B0118BF5FEA1C1CE0D14F
:10526000FD2A3FF650AF8B4240EBC25008BF20F002
:10527000010070470CF0004C4CEA50207F32C2BF56
:10528000D2F1FF0340EAC250704740F400004FF0F3
:105290000003013A37E792F0000F00F0004C02BF24
:1052A000400010F4000F013AF9D040EA0C0093F0EE
:1052B000000F01F0004C02BF490011F4000F013B48
:1052C000F9D041EA0C0195E70CEAD15392EA0C0FB0
:1052D00008D142027FF47DAF93EA0C0F7FF470AFE8
:1052E000084676E793EA0C0F04D14B023FF44CAF2B
:1052F00008466EE730F0004C18BF31F0004CCAD1C0
:1053000030F000427FF45CAF31F000437FF43CAFFB
:105310005FE700BF4FF0FF3C06E000BF4FF0010C1D
:1053200002E000BF4FF0010C4DF804CD4FEA4002FF
:105330004FEA41037FEA226C18BF7FEA236C11D049
:1053400001B052EA530C18BF90EA010F58BFB2EBFC
:10535000030088BFC81738BF6FEAE17018BF40F07C
:10536000010070477FEA226C02D15FEA402C05D130
:105370007FEA236CE4D15FEA412CE1D05DF8040BB5
:10538000704700BF844608466146FFE70FB5FFF748
:10539000C9FF002848BF10F1000F0FBD4DF808ED00
:1053A000FFF7F4FF0CBF012000205DF808FB00BFF1
:1053B0004DF808EDFFF7EAFF34BF012000205DF84B
:1053C00008FB00BF4DF808EDFFF7E0FF94BF012098
:1053D00000205DF808FB00BF4DF808EDFFF7D2FF95
:1053E00094BF012000205DF808FB00BF4DF808EDD8
:1053F000FFF7C8FF34BF012000205DF808FB00BFA5
:105400004FEA4002B2F1FE4F0FD34FF09E03B3EBD1
:1054100012620DD94FEA002343F0004310F0004F11
:1054200023FA02F018BF404270474FF00000704767
:1054300012F1610F01D1420205D110F0004008BF06
:105440006FF0004070474FF00000704742000ED2EE
:10545000B2F1FE4F0BD34FF09E03B3EB126209D4AF
:105460004FEA002343F0004323FA02F070474FF065
:105470000000704712F1610F01D1420202D14FF0DA
:10548000FF3070474FF00000704700BF08B5074B72
:10549000044613B10021AFF30080054B1868836AFE
:1054A00003B19847204600F033F800BF0000000029
:1054B0000468000070B50E4B0E4D0024ED1AAD10BF
:1054C0001E46AC4204D056F8242090470134F8E739
:1054D00000F020F8084D094B0024ED1AAD101E46CF
:1054E000AC4204D056F8242090470134F8E770BD50
:1054F000B0000020B0000020B4000020B000002068
:1055000002440346934202D003F8011BFAE77047B6
:10551000FEE700BFF8B500BFF8BC08BC9E46704768
:10552000F8B500BFF8BC08BC9E46704708091108D2
:105530000000000000000000010101010000000067
:105540000000000001010100000000000000000058
:10555000000000000000000000000000000000004B
:10556000000000000000000000000000000000003B
:10557000000000000000000000000000000000002B
:10558000000000000000000000000000000000001B
:10559000000000000000000000000000000000000B
:1055A00000000000000000000000000000000000FB
:1055B00000000000000000000000000000000000EB
:1055C00000000000000000000000000000000000DB
:1055D00000000000000000000000000000000000CB
:1055E00000000000000000000000000000000000BB
:1055F00000000000000000000000000000000000AB
:10560000000000000000000000000000000000009A
:10561000000000000000000000000000000000008A
:10562000000000000000000000000000000000007A
:10563000000000000000000000000000000000006A
:10564000000000000000000000000000000000005A
:10565000000000000000000000000000000000004A
:10566000000000000000000000000000000000003A
:105670000000000001010100000000000000000027
:105680000100000001003700000000600E00000073
:105690000000000001010100000000000000000007
:1056A0000100000001003700000000600E00000053
:1056B00000000000010101000000000000000000E7
:1056C0000100000001003700000000600E00000033
:1056D00000000000010101000000000000000000C7
:1056E0000100000001003700000000600E00000013
:1056F00000000000000000000000000000000000AA
:105700000000000000000000000000000000000099
:105710000000000000000000000000000000000089
:105720000000000000000000000000000000000079
:105730000000000000000000000000000000000069
:105740000000000000000000000000000000000059
:105750000000000000000000000000000000000049
:105760000000000000000000000000000000000039
:105770000000000000000000000000000000000029
:105780000000000000000000000000000000000019
:105790000000000000000000000000000000000009
:1057A00000000000000000000000000000000000F9
:1057B00000000000000000000000000000000000E9
:1057C00000000000000000000000000000000000D9
:1057D00000000000000000000000000000000000C9
:1057E00000000000000000000000000000000000B9
:1057F00000000000000000000000000000000000A9
:105800000000000000000000000000000000000098
:105810000000000000000000000000000000000088
:105820000000000000000000000000000000000078
:105830000000000000000000000000000000000068
:105840000000000000000000000000000000000058
:105850000000000000000000000000000000000048
:105860000000000000000000000000000000000038
:105870000000000001010000000000000000000026
:10588000010000000100370000000040000000009F
:105890000000000001010000000000000000000006
:1058A000010000000100370000000040000000007F
:1058B00000000000010100000000000000000000E6
:1058C000010000000100370000000040000000005F
:1058D00000000000010100000000000000000000C6
:1058E000010000000100370000000040000000003F
:1058F00000000000000000000000000000000000A8
:105900000000000000000000000000000000000097
:105910000000000000000000000000000000000087
:105920000000000000000000000000000000000077
:105930000000000000000000000000000000000067
:105940000000000000000000000000000000000057
:105950000000000000000000000000000000000047
:105960000000000000000000000000000000000037
:105970000000000001000100000000000000000124
:105980000000000000000000000000000000000017
:1059900000000000000000000000040002020000FF
:1059A00000000000000000000000000000010000F6
:1059B00000000100010203000000000000000000E0
:1059C00000000000000000000000000000000000D7
:1059D0000000000000000000010001000080000045
:1059E0000001000001000080010001000010002003
:1059F0000000000000000100010001000080000024
:105A000000010000010000800100010000100020E2
:105A10000000000000000100000000000000000085
:105A20000000000000000000000000000000000076
:105A30000000000000000000000000000000000066
:105A40000000000000000000000000000000000056
:105A50000000000000000000000000000000000046
:105A60000000000000000000000000000000000036
:105A700000000000000000000100010000800000A4
:105A8000000100000100000101003300001000606F
:105A90000000000000000000010001000080000084
:105AA0000001000001000080010001000010002042
:105AB00000000000000001000000000000000000E5
:105AC00000000000000000000000000000000000D6
:105AD00000000000000000000000000000000000C6
