:020000041000EA
:1080000010B5184B184A9A4203D0184B154A9A4299
:1080100004D3174B174A9A4210D31EE0164B134A4B
:108020000332D21A92080132920000230D480E4901
:10803000CC58C45004339342FAD1EAE70F4B0C49B1
:108040000331C91A8908013189000023094C002035
:108050001A19106004338B42FAD1094B9847094B27
:10806000984710BD3C5F01103C5F0110606001103B
:10807000CC96011060600110405F01106460011037
:108080009135011039D2001010B5064C2378002B21
:1080900007D1054B002B02D0044800E000BF0123AC
:1080A000237010BD60600110000000003C5F0110F3
:1080B000084B10B5002B03D00749084800E000BF6B
:1080C00007480368002B00D110BD064B002BFBD0E6
:1080D0009847F9E700000000646001103C5F011060
:1080E0003C5F011000000000F0B5474680B482B04C
:1080F00080231B013A4AD45C00260F231C400194C4
:10810000384B98460125019A002100E019005208D9
:108110004B1CDBB2002AF9D189004346C8580378CA
:108120001B02314A9C58E1B2304A9A588262FF22BF
:108130002240154203D00026252286542FE09707BF
:1081400004D51026252286542E0028E0570704D592
:108150001026252286540E3E21E0170704D510264E
:10816000252286540D3E1AE0D70604D51026252276
:1081700086540C3E13E0970604D51026252286541B
:108180000B3E0CE0520604D51026252286540A3EEA
:1081900005E0220603D5102625228654093E002933
:1081A0000ED013492A00B2405A502423C35C3341F5
:1081B0001D4205D0B300C3185B68002B00D0984760
:1081C0002B00B3409C4363B2002B9CD18021090259
:1081D0008133FF33074AD15002B004BC9046F0BD52
:1081E000002000407C600110AC2000405020004086
:1081F000A420004000E100E0012202704270827081
:108200000023C370037143718371C371037242729F
:108210008272C272037343738373C37303744374B0
:108220008374C3747047C04610B52523C35CDBB2AA
:10823000052B42D0C26A002A07D00323D4689C438E
:1082400023000324002B1FD12DE0C16203781B0201
:108250001B4A944663440A681A6003781B02194A51
:10826000944663444A681A608A6803781B02164978
:108270008C4663441A6003781B02144A9446634494
:1082800003221A60002318E0D268D368A343FBD10D
:10829000D1600323CA689A430023002A0DD0033318
:1082A000CB60002309E003781B020848844663443E
:1082B00003200C0084431C60EAE7180010BDC04690
:1082C0000020004004200040082000400C20004016
:1082D00082B002002523C35CD8B2052827D0D36A18
:1082E0009B681720002B22D013781B021149595884
:1082F00001910198104958502423D35C01930199AE
:1083000013781B020D488446634419600521252318
:10831000D15413781B020A498C4663440121196029
:1083200013781B02074A944663441960002002B088
:108330007047C046AC200040A4200040A820004068
:108340004020004044200040F8B504000D00624B7E
:108350001B78002B12D14320604B98476049CC22F8
:108360008858604B03408020400503438B505E4992
:108370001F205E4B98470122574B1A70564B5A6884
:10838000D30700D5A2E002E011420ED100E00023A5
:10839000514A50680121994001435160117A0139D5
:1083A00011721420FF2B07D194E052080133DBB285
:1083B000052BE9D114208DE023701B024C4A944612
:1083C00063442A787F263240A978C9070A4369782E
:1083D0000904FC20800301400A431A6023781B0231
:1083E000444A944663446A7A3240E97AC9070A43A8
:1083F000A97A090408401043186023781B023E4AFA
:1084000094466344EA7C1207C02189050A40A97C8E
:1084100009040A431A6023781B02384A94466344CD
:108420002F793F02E021C9003A000A402E7B360432
:10843000F8204003064032431700E8781F2202402C
:108440003E0016436A7B1206E020C004024032431D
:108450001A60207800022A4B9C466044AB790726BC
:1084600033406E790822B2401343EE798022B24045
:108470001343AE7B80221201B24013432E7C802234
:108480001202B24013431E002A7A120170231A40CE
:1084900033001343EA7B120211400B43697C09034A
:1084A000E022D20111400B430360231D210024313F
:1084B000002204C38B42FCD100232422A354E36294
:1084C00023789B000F4A9C50002003E052080123B0
:1084D000012159E7F8BDC0463C5F0110F991001039
:1084E00000B00040FFFFFFE0E9800010619600103F
:1084F00010200040142000401820004020200040A0
:10850000382800407C60011010B50D4B1B7D002BFE
:1085100007D001220A4B1A730A4B1B68002B00D0AC
:1085200098473423064AD35C002B07D001212C2323
:10853000D154054B1B68002B00D0984710BDC04696
:10854000001000409060011094600110012303703E
:108550000373022242704273837083730022C270DD
:10856000C273037103748260426102767047C04631
:10857000002807D1002902D1064B1A6009E0054BFB
:108580009A6106E0002902D1024B1A6201E0014B18
:108590009A63704700100040002805D1064A117AFE
:1085A00080230B43137205E003492822885C802353
:1085B00003438B547047C04600100040002805D18B
:1085C000064A117A7F230B40137205E003492822E3
:1085D000885C7F2303408B547047C04600100040E6
:1085E00070B504000420394B98472378002B02D142
:1085F000237B002B65D03649CA6820231343CB6008
:10860000227E8B690320024012012D3083431343E5
:108610008B612378002B26D063780121002B03D0B7
:10862000023B5D425D41A901A278520002252A4029
:10863000E3789B000A352B401A4315000D4323793C
:10864000002B01D020231D43224BA2681A601D720B
:108650001F49C4225200885C012303438B5400202D
:108660001D4B984700E00025237B002B29D0637B1E
:10867000002B05D0012B05D0022B04D1402502E0B0
:10868000012500E00025A37B5B0002211940E27B6D
:1086900092000C2313400B431D43237C002B01D07D
:1086A00020231D4362690B4B1A6228229D540849FE
:1086B0006132FF32885C022303438B540120064B56
:1086C000984706491E20064B984770BDF991001047
:1086D00000B000400010004099850010098500108E
:1086E00061960010002802D1024B196001E0024B94
:1086F00019607047906001109460011070B5164BBE
:108700001D68298F89B2CB0707D4012301241800E3
:1087100022009A40114214D001E00122002092B2BE
:108720002A8746230C4AD35A0341DB070CD544233E
:10873000D35A0341DB0707D58000101843689847D8
:1087400002E00133102BE2D180210904C0235B0039
:10875000024AD15070BDC0465C7B011000E100E0D0
:10876000F8B5184B9B6C1E8FB6B237000024760B01
:108770007603144D002E01D0134B9847220001239D
:10878000A3401F4213D09BB2A96C0B878E23EB5AD8
:108790002341DB070BD58C230A49CB5A2341DB0746
:1087A00005D5123292008A185368984702E00134C6
:1087B000102CDFD180214904C0235B00034AD15033
:1087C000F8BDC0465C7B011051BC010000E100E037
:1087D00010B590231B4AD258138F9BB2D90414D4DE
:1087E00099040AD459040CD4DB0BDB039BB2002B95
:1087F00020D080231B020F210AE080239B010D2142
:1088000006E08023DB010E2102E080235B010C21C6
:108810009BB21387D6230B4AD35A0B41DB0709D5EA
:10882000D423D35A0B41DB0704D5243189005118D6
:108830004B68984780218904C0235B00024AD150CD
:1088400010BDC0465C7B011000E100E00023037016
:10885000012242708370C3707047C04670B5172301
:10886000012800D8C8E0072809D8644D6A6C103B7D
:1088700003409B0007249C40A2436A6429E00F2820
:1088800009D85E4DAA6C072303409B0007249C4037
:10889000A243AA641DE0172809D8584DEA6C0723A3
:1088A00003409B0007249C40A243EA6411E00300BC
:1088B0002C3B032B0DD8524D8224E4002A5D120775
:1088C00001269E40120F2B5DB2430F26B343134384
:1088D0002B5503001D3B022B29D84B78012B08D1C7
:1088E000474D2B7D1F24241A0122A24093432B7550
:1088F00008E0434C257D1F22121A012393402B438D
:10890000DBB22375CA780023002A75D03C490C8855
:108910001F22101A80000133834023439BB20B8037
:10892000384A117802230B431370002364E00A785D
:10893000002A40D10F2808D8012383409BB2324A35
:10894000938200231F2857D812E01F2807D80F2230
:108950000240012393409BB22C4A938208E00F23EC
:1089600018400E3B83409BB2294A9382002343E088
:108970004B78012B0CD0002B02D0022B10D03AE008
:108980001E490A6D0123834013430B65002333E026
:108990001A490B6D0122824093430B6500232BE0A3
:1089A000164B596D0122824011435965196D91434F
:1089B0001965002320E00023012A1DD10F2806D8C5
:1089C000013383409BB2104A1382002314E01F2816
:1089D00008D80F2318400E3B83409BB20B4A1382EA
:1089E000002309E00F2318400E3B83409BB2084A46
:1089F0001382002300E01723180070BD00B0004070
:108A000000F0004000E00040000001400010014084
:108A10000030014010B50F2810D8002907D01D4A9A
:108A20009188012383400B439BB2938031E0194925
:108A30008B880122824093438B802AE01F2814D820
:108A4000002909D014498C880F221040012383404B
:108A500023439BB28B801CE00F498B880F22104070
:108A60000E3A824093438B8013E0002909D00B49D2
:108A70008C880F2210400123834023439BB28B80BC
:108A800007E006498B880F2210400E3A824093433C
:108A90008B8010BD000001400010014000300140FB
:108AA0000F2807D80E4A9188012383404B409BB280
:108AB000938014E01F2809D80A4A91880F23184090
:108AC0000E3B83404B409BB2938008E0064A91885E
:108AD0000F2318400E3B83404B409BB2938070475E
:108AE00000000140001001400030014070B50D0A47
:108AF000FF231940072833D84E4A546CF83B0340F3
:108B00009B0007269E40B4435464546C0E009E4064
:108B1000330023435364012900D08AE003280FD88F
:108B20001100D02252008C5803231840C0003C335F
:108B300083409C438C508B5885401D438D5078E07A
:108B40003C49D22252008C5803231840C0003C33C9
:108B500083409C438C508B5885401D438D5068E06A
:108B60000F2832D8334A946C072303409B00072612
:108B70009E40B4439464946C0E009E4033002343A3
:108B80009364012955D10B280FD81100D42252002B
:108B90008C5803231840C0003C3383409C438C50C6
:108BA0008B5885401D438D5043E02249D622520008
:108BB0008C5803231840C0003C3383409C438C50A6
:108BC0008B5885401D438D5033E0172831D8194A02
:108BD000D46C072303409B0007269E40B443D46413
:108BE000D46C0E009E4033002343D364012920D16E
:108BF00013280FD81100D82252008C580323184094
:108C0000C0003C3383409C438C508B5885401D43AF
:108C10008D500EE0074ADA235B00D1580324204030
:108C2000C0003C348440A143D150D15885400D430D
:108C3000D55070BD00B00040F0B500230F2804D916
:108C40001F2484425B411D3CE31A012A16D0002AEE
:108C500004D0022A22D0032A30D03EE0294EDC0084
:108C6000E218D20097590F2505400122AA4092B27E
:108C7000BA85E418E400A459A2862EE0214EDC0057
:108C8000E218D20097590F2505400122AA4092B25E
:108C9000BA85E418E400A45922861EE0194EDC00CF
:108CA000E218D20097590F2505400122AA4092B23E
:108CB0003A85E418E400A45922860EE0114EDC0047
:108CC000E218D20097590F2505400122AA4092B21E
:108CD0003A85E418E400A459A2860F221040094CFA
:108CE000DD00EA18520012189200A2185160EA182A
:108CF000D200A21844320121814013880B43138013
:108D0000F0BDC0465C7B011030B50F2805D880222D
:108D10001204124B1A6000220CE01F2805D8802292
:108D200052040E4B1A60012204E0802292040B4B85
:108D30001A6002220F23184001218140084CD500FF
:108D4000AB18DB00E3184633188808431880AA18CC
:108D5000D200135989B2198430BDC04600E100E049
:108D60005C7B011030B500230F2804D91F228242FA
:108D70005B411D3AD31A0F22104001218140074C5C
:108D8000DD00EA18D200A21846321088884310800D
:108D9000EB18DB001B5989B2998430BD5C7B011054
:108DA00010B5114A1000D830002107E002C39342E9
:108DB000FCD1518011804832824202D01300403BE6
:108DC000F4E70A4B0A4A1A600A4A9A640A4990224E
:108DD00099500A4927200A4CA0470A492820A04751
:108DE00009492920A04710BDA07B01105C7B011020
:108DF000000001400010014000300140FD860010DD
:108E00006196001061870010D187001001280DD0F5
:108E1000002802D002281CD02EE0184A90690C23AA
:108E200003439361164A174B1A601AE0134B986973
:108E3000082202439A619A69042082439A61124A85
:108E400053688020000303435360104A0D4B1A609F
:108E500007E00A4A93690C2083439361084A094B4F
:108E60001A60064B9A69032082439A619A6901400D
:108E700011439961002000E01720704700B00040C6
:108E800080BA8C01347C011000F0004080841E0008
:108E9000014B18687047C046347C011000B5352876
:108EA00000D9A2E18000D24B1B589F46D14AD1681D
:108EB00002230B43D360002098E1CE4AD1680423FB
:108EC0000B43D360002091E1CA4AD16808230B43C9
:108ED000D36000208AE1C74AD16810230B43D360D6
:108EE000002083E1C34AD16820230B43D3600020D4
:108EF0007CE1C04AD16880230B43D360002075E138
:108F0000BC4AD368802149000B43D36000206DE147
:108F1000B84AD368802109010B43D360002065E182
:108F2000B44AD368802149010B43D36000205DE13E
:108F3000B04AD368802189010B43D360002055E1FA
:108F4000AC4AD3688021C9010B43D36000204DE1B6
:108F5000A84AD368802109020B43D360002045E171
:108F6000A44AD368802149020B43D36000203DE12D
:108F7000A04AD368802189020B43D360002035E1E9
:108F80009C4AD3688021C9020B43D36000202DE1A5
:108F9000984AD368802109030B43D360002025E160
:108FA000944AD368802149030B43D36000201DE11C
:108FB000904AD368802189030B43D360002015E1D8
:108FC0008C4AD3688021C9030B43D36000200DE194
:108FD000884AD368802109040B43D360002005E14F
:108FE000844AD368802149040B43D3600020FDE00C
:108FF000804AD368802189040B43D3600020F5E0C8
:109000007C4AD3688021C9040B43D3600020EDE083
:10901000784AD368802109050B43D3600020E5E03E
:10902000744AD368802149050B43D3600020DDE0FA
:10903000704AD368802189050B43D3600020D5E0B6
:109040006C4AD3688021C9050B43D3600020CDE072
:10905000684A116901230B4313610020C6E0654A89
:10906000116902230B4313610020BFE0614A1169BB
:1090700004230B4313610020B8E05E4A1169082302
:109080000B4313610020B1E05A4A116910230B43CE
:1090900013610020AAE0574A116920230B43136192
:1090A0000020A3E0534A116940230B4313610020C1
:1090B0009CE0504A116980230B431361002095E026
:1090C0004C4A1369802149000B43136100208DE055
:1090D000484A1369802189000B431361002085E011
:1090E000444A13698021C9000B43136100207DE0CD
:1090F000404A1369802109010B431361002075E088
:109100003C4A1369802149010B43136100206DE043
:10911000384A1369802189010B431361002065E0FF
:10912000344A13698021C9010B43136100205DE0BB
:10913000304A1369802109020B431361002055E076
:109140002C4A1369802149020B43136100204DE032
:10915000284A1369802189020B431361002045E0EE
:10916000244A13698021C9020B43136100203DE0AA
:10917000204A1369802109030B431361002035E065
:109180001C4A1369802149030B43136100202DE021
:10919000184A1369802189030B431361002025E0DD
:1091A000144A13698021C9030B43136100201DE099
:1091B000104A1369802109040B431361002015E054
:1091C0000C4A117D01230B43137500200EE0094A60
:1091D000117D02230B431375002007E0054A117D22
:1091E00004230B431375002000E0172000BDC04688
:1091F0002048011000B0004000B5432800D923E208
:109200008000E04B1B589F46DF4B59680222914378
:10921000596059680A435A60002016E2DA4B5968CF
:1092200004229143596059680A435A6000200CE2B5
:10923000D54B596808229143596059680A435A60CE
:10924000002002E2D04B59681022914359605968BE
:109250000A435A600020F8E1CB4B59682022914321
:10926000596059680A435A600020EEE1C64B5968BC
:1092700040229143596059680A435A600020E4E152
:10928000C14B596880229143596059680A435A601A
:109290000020DAE1BC4B5968BC4A0A405A605A685F
:1092A000802149000A435A600020CEE1B64B59683C
:1092B000B74A0A405A605A68802189000A435A60B6
:1092C0000020C2E1B04B5968B24A0A405A605A685D
:1092D0008021C9000A435A600020B6E1AA4B5968B0
:1092E000AD4A0A405A605A68802109010A435A600F
:1092F0000020AAE1A44B5968A84A0A405A605A685B
:10930000802149010A435A6000209EE19E4B596822
:10931000A34A0A405A605A68802189010A435A6068
:10932000002092E1984B59689E4A0A405A605A6858
:109330008021C9010A435A60002086E1924B596896
:10934000994A0A405A605A68802109020A435A60C1
:1093500000207AE18C4B5968944A0A405A605A6856
:10936000802149020A435A6000206EE1864B596809
:109370008F4A0A405A605A68802189020A435A601B
:10938000002062E1804B59688A4A0A405A605A6854
:109390008021C9020A435A60002056E17A4B59687D
:1093A000854A0A405A605A68802109030A435A6074
:1093B00000204AE1744B5968804A0A405A605A6852
:1093C000802149030A435A6000203EE16E4B5968F0
:1093D0007B4A0A405A605A68802189030A435A60CE
:1093E000002032E1684B5968764A0A405A605A6850
:1093F0008021C9030A435A60002026E1624B596864
:10940000714A0A405A605A68802109040A435A6026
:1094100000201AE15C4B59686C4A0A405A605A684D
:10942000802149040A435A6000200EE1564B5968D6
:10943000674A0A405A605A68802189040A435A6080
:10944000002002E1504B5968624A0A405A605A684B
:109450008021C9040A435A600020F6E04A4B59684B
:109460005D4A0A405A605A68802109050A435A60D9
:109470000020EAE0444B5968584A0A405A605A684A
:10948000802149050A435A600020DEE03E4B5968BE
:10949000534A0A405A605A68802189050A435A6033
:1094A0000020D2E0384B59684E4A0A405A605A6848
:1094B0008021C9050A435A600020C6E0324A536839
:1094C0005B005B0853605368802109060B435360BF
:1094D0000020BAE02C4B1A8901218A431A8119898C
:1094E00001220A431A810020AFE0274B1A8902218A
:1094F0008A431A81198902220A431A810020A4E0B2
:10950000214B1A8904218A431A81198904220A43AA
:109510001A81002099E01C4B1A8908218A431A817C
:10952000198908220A431A8100208EE0164B1A89F5
:1095300010218A431A81198910220A431A810020B6
:1095400083E0114B1A8920218A431A81198920222C
:109550000A431A81002078E00B4B1A8940218A4384
:109560001A81198940220A431A8100206DE0064BB6
:109570001A8980218A431A81198980220A431A8113
:10958000002062E0F848011000B00040FFFEFFFF3D
:10959000FFFDFFFFFFFBFFFFFFF7FFFFFFEFFFFFF9
:1095A000FFDFFFFFFFBFFFFFFF7FFFFFFFFFFEFFAC
:1095B000FFFFFDFFFFFFFBFFFFFFF7FFFFFFEFFFD9
:1095C000FFFFDFFFFFFFBFFFFFFF7FFFFFFFFFFE8C
:1095D000FFFFFFFDFFFFFFFBFFFFFFF7FFFFFFEFB9
:1095E000FFFFFFDFFFFFFFBF184B1989184A0A4032
:1095F0001A811989802252000A431A81002024E02E
:10960000124B1989134A0A401A8119898022920043
:109610000A431A81002018E00C4B19890E4A0A40AF
:109620001A8119898022D2000A431A8100200CE095
:10963000064B1989094A0A401A81198980221201A8
:109640000A431A81002000E0172000BD00B000404E
:10965000FFFEFFFFFFFDFFFFFFFBFFFFFFF7FFFF29
:109660008023DB049C466044800001607047C04654
:1096700070B5204B1C6823681D7DEDB26A0613D5BA
:109680001E212222A1541A7E23318A431A762123D5
:10969000E35C1B0706D52023E35C1B0702D52000F3
:1096A0002369984723681B7CEB0722D523681B7C22
:1096B000DBB262691370636901336361A38B013BA1
:1096C0009BB2A383A38B9BB2002B12D12133E35C0B
:1096D0005B070ED52023E35C5B070AD5002222231B
:1096E000E2542268137E01218B431376E368200045
:1096F000984770BD387C011070B5214B1C682368F9
:109700001D79EDB2EA0717D5A2691178C9B2013205
:10971000A2611970E38B013B9BB2E383E38B9BB2A5
:10972000002B09D12268137A01218B43137222681E
:10973000117A10230B431372EB0612D52123E35C3D
:10974000DB070ED52023E35CDB070AD500222223AA
:10975000E2542268137A10218B431372200063684D
:109760009847AB060AD52123E35C9B0706D5202347
:10977000E35C9B0702D5A3682000984770BDC046F4
:10978000387C011070B5204B5C6823681D7DEDB2FC
:109790006A0613D51E212222A1541A7E23318A4340
:1097A0001A762123E35C1B0706D52023E35C1B0705
:1097B00002D520002369984723681B7CEB0722D53C
:1097C00023681B7CDBB262691370636901336361D8
:1097D000A38B013B9BB2A383A38B9BB2002B12D123
:1097E0002133E35C5B070ED52023E35C5B070AD5DE
:1097F00000222223E2542268137E01218B43137638
:10980000E3682000984770BD387C011070B5214B8B
:109810005C6823681D79EDB2EA0717D5A269117853
:10982000C9B20132A2611970E38B013B9BB2E383A1
:10983000E38B9BB2002B09D12268137A01218B4361
:1098400013722268117A10230B431372EB0612D5A0
:109850002123E35CDB070ED52023E35CDB070AD57D
:1098600000222223E2542268137A10218B431372C0
:10987000200063689847AB060AD52123E35C9B0769
:1098800006D52023E35C9B0702D5A36820009847F8
:1098900070BDC046387C0110E1235B0203600023E9
:1098A000037143718371C371023383600322C26009
:1098B00001320261013242618361C361036243622A
:1098C0007047C046F8B54F464646C0B4050017007D
:1098D0000160002343608360C3600361436183616F
:1098E00000228383C3832033C2540133C254013323
:1098F000C254554B994218D10920544CA0470A2014
:10990000A0470920524CA0470A20A047514B1D6098
:1099100051491020514CA04751491120A047514BAB
:1099200001221A6001321A601AE04F4B994217D196
:109930000B20464CA0470C20A0470B20444CA047CE
:109940000C20A047434B5D6048491220434CA04780
:1099500047491320A047434B04221A6004321A607F
:10996000FB7904229046002B52D1023398464FE0F7
:10997000318A01CEC0B2C8470134E4B24445F7D3BE
:109980002B681A7DD20704D501211A7C1A7D0A4260
:10999000FBD1002120229954FB79591E8B4159019A
:1099A0003B797A7913430B43BA79022A0DD0D1B2AD
:1099B000022902D8012A05D00FE0032A08D0042A80
:1099C00009D00AE00222134307E00622134304E011
:1099D0000A22134301E00E221343202229688B54EC
:1099E0003E68244B984704003100234B984782B2CD
:1099F0000004000C7043201A3109884206D9002364
:109A00000133DBB2401A8842FAD807E0002305E0B0
:109A10003E0008360024194B9946A9E7002128206A
:109A20002C68215401331B075B0FD20013439BB2F8
:109A30002A6893842B6819762B68197200200CBC55
:109A400090469946F8BDC04600400040F99100108C
:109A50009D8E0010387C01107196001061960010E8
:109A6000F996001000E100E00050004085970010DA
:109A70000D980010918E00104D180110ED8A001005
:109A80000268012013790342FCD011700020704756
:109A900002680120137D0342FCD0137C0B70002070
:109AA0007047C0461723002A0DD00B33C35CDBB2CE
:109AB000052B08D08283416105222223C25403680A
:109AC000043A1A76002318007047C0469300C31862
:109AD0005960202101239340425C13434354704753
:109AE00010B5212201238B40845C23438354012938
:109AF00004D10268117A20230B43137210BDC046B3
:109B000010B501228A402124035D934303550129A6
:109B100004D10268137A1F318B43137210BDC04603
:109B20000268117A10230B4313720368074A9342A9
:109B300004D102218023064AD15006E0054A93420F
:109B400003D108218023024AD150704700400040D1
:109B500000E100E0005000400268117E01230B4349
:109B600013760368074A934204D102218023064AF0
:109B7000D15006E0054A934203D108218023024ACE
:109B8000D15070470040004000E100E0005000402C
:109B9000F0B5474680B40C00904600280DD1002A4D
:109BA0000EDD8F18084E094D306821002B6898474C
:109BB0000134A742F8D1404603E00120404200E0D2
:109BC000002004BC9046F0BD487C0110407C011090
:109BD000F0B5474680B40E0015000138022811D8B0
:109BE000002A12D000240C4B98460C4F43461868AC
:109BF000315D3B689847002809DB0134A542F5D167
:109C0000200006E00120404203E0002001E00120A6
:109C1000404204BC9046F0BD487C0110447C0110D9
:109C20000300064A1268002A02D10549034A11605E
:109C3000024A1068C31813607047C046986001104C
:109C4000D09E0110012040427047C04680239B01F6
:109C50004B6000207047C0460120704700207047CD
:109C6000002070470289024B1A8000207047C046CE
:109C7000187D0110002070470020704780B51A4FF2
:109C8000BD440100194A01A8194B984701A9194878
:109C9000194B98470200431EDBB2012B0DD8012857
:109CA00004D1164B1B680120984717E0022815D1F4
:109CB000124B1B680020984710E00338C0B20128FF
:109CC0000CD8032A04D10E4B1B680120984705E0ED
:109CD000042A03D10A4B1B680020984700208423E4
:109CE0009B009D4480BDC046F0FDFFFF0A020000BE
:109CF000FB350110507C0110D1B700104C7F0110D2
:109D00004C7C0110014B18607047C0464C7F01101D
:109D1000014B18607047C0464C7C011010B5030021
:109D20008AB250210F48405A19000F4B9847041E21
:109D300007D00E480E4B984721000E480E4B98470F
:109D40000FE05023074AD15A0C4B18880C4B984708
:109D5000041E06D00548064B984721000948064BCB
:109D6000984710BD507C011079F50010084A011089
:109D70003D3701100C4A01101D360110187D0110ED
:109D80008DF70010504A011010B503008AB20F4938
:109D9000888A19000E4B9847041E07D00D480E4BB9
:109DA000984721000D480E4B98470EE0074B998AC3
:109DB0000C4B18880C4B9847041E06D00548064BE0
:109DC000984721000948064B984710BD507C011068
:109DD00079F50010084A01103D370110744A01104E
:109DE0001D360110187D011019F70010B44A01103A
:109DF00010B5074B18881321064B9847041E06D050
:109E00000548064B984721000548064B984710BD6A
:109E1000187D011075ED0010084A01103D37011042
:109E2000D84A01101D36011010B584B000230293EA
:109E30000D4B019364230093002300220121002095
:109E40000A4CA047041E06D109480A4B98470A4805
:109E50000A4B984706E00648064B984721000848F9
:109E6000064B984704B010BD8F02000019EC00109B
:109E7000084A01103D370110044B01101D36011036
:109E80002C4B011010B50C480C4B9847041E06D003
:109E90000B480C4B984721000B480C4B98470C483B
:109EA0000C4B9847041E06D00548064B98472100E6
:109EB0000948064B984710BD507C0110ADB7001003
:109EC000084A01103D370110684B01101D36011082
:109ED0001C7D011015BC00109C4B011010B50348EF
:109EE000034B98470348044B984710BD507C011022
:109EF00075B600101C7D011009B8001070B58C22D9
:109F0000920000212548264CA047C8220021254860
:109F1000A0470023244A1360244A1360244A138074
:109F2000244C23606360A360E3602361224A626182
:109F3000224AA261E36123626362A362E362236354
:109F40006363A363E36323646364A3641C4D1D4ADA
:109F50002A601D4A6A601D4AAA60EB602B616B6132
:109F6000AB61EB612B626B62194B9847194B9847B9
:109F7000220000210020184CA0472A0002210020C6
:109F8000A047164B9847041E06D01548154B984716
:109F900021001548154B984770BDC0461C7D011027
:109FA0000D360110507C01104C7F01104C7C0110CB
:109FB000187D0110485F0110659C0010619C001025
:109FC000945F0110759C0010799C00107D9C00101E
:109FD000DD9E0010859E00109DAD0010E1B50010C3
:109FE000084A01103D370110C84B01101D36011001
:109FF000002070470020704710B586B0010001AC0A
:10A0000012222000034B98472289034B1A8000201C
:10A0100006B010BDFB350110187D011080B5164F3C
:10A02000BD440100822292006846144B98476B465B
:10A030005A888C231249CB5A9A4218D16B461B7A04
:10A04000012B10D1002168460E4B9847002806D0FE
:10A050000D480E4B98470E480E4B984707E00E4BA5
:10A060001B68984703E080216846064B984700200C
:10A0700082239B009D4480BDF8FDFFFFFB3501104E
:10A08000547F0110F5F50010084A01103D3701100A
:10A09000144C01101D360110507F011080B50D4F7A
:10A0A000BD4401000C4A01A80C4B984701A90C487B
:10A0B0000C4B9847012803D80B4B1B68984704E0CA
:10A0C000022802D1094B1B689847002084239B007B
:10A0D0009D4480BDF0FDFFFF0A020000FB3501102A
:10A0E000547F011089BD00104C7F0110507F01107A
:10A0F000014B18607047C0464C7F0110014B18603F
:10A100007047C046507F011010B503008AB2114954
:10A11000888A1900104B9847041E08D00F48104B2E
:10A12000984721000F48104B9847002011E0094B39
:10A13000998A0E4B18880E4B984704000120002C7A
:10A1400007D00648064B984721000A48064B984717
:10A15000002010BD547F011079F50010084A01104D
:10A160003D370110384C01101D360110187D0110CB
:10A170008DF70010684C011010B50B4B1888132197
:10A180000A4B9847041E07D009480A4B98472100FC
:10A1900009480A4B984705E00548064B9847084888
:10A1A000064B984710BDC046187D011075ED001094
:10A1B000084A01103D3701108C4C01101D3601106A
:10A1C000B04C011010B584B0002302930193C82352
:10A1D000DB0000930023002201210020094CA0474E
:10A1E000041E06D10848094B98470948094B98476F
:10A1F00006E00548054B984721000748054B98475E
:10A2000004B010BD19EC0010084A01103D370110D0
:10A21000044B01101D3601102C4B011010B50C48D9
:10A220000C4B9847041E06D00B480C4B9847210056
:10A230000B480C4B98470C480C4B9847041E06D013
:10A240000548064B984721000948064B984710BD22
:10A25000547F011065BD0010084A01103D37011000
:10A26000D44C01101D3601101C7D011015BC0010CE
:10A270009C4B011010B50348034B98470348044B0F
:10A28000984710BD547F011039BC00101C7D01108F
:10A2900009B8001010B50C4B98470C4B98470C4A66
:10A2A000002100200B4CA0470B4A02210020A047B0
:10A2B0000A4B9847041E06D009480A4B98472100CC
:10A2C00009480A4B984710BD75A200101DA2001046
:10A2D0002C4D01109DAD0010EC4B0110E1B50010AC
:10A2E000084A01103D370110044D01101D360110C0
:10A2F00030B500230022438202700F2141700931E2
:10A300008170838282751924C47511340476183CD7
:10A310000485114CC462012404864486222533340A
:10A32000055583638387C387103402550134025572
:10A3300001340255023403530234035302340353ED
:10A34000064B483C1C705A70598001221A71102229
:10A35000DA80036430BDC046BC5F01101C80011070
:10A3600010B582B0010012310123019303001433B0
:10A37000009300230022024CA04702B010BDC0464B
:10A3800059F50010F0B583B006000F001D006B46B4
:10A39000D91D0A70B88A0122124B9847041E08D0B2
:10A3A0001148124B984721001148124B9847200042
:10A3B00016E0114B1B780020002B11D0B98A300019
:10A3C0000E4B9847041E08D00748084B98472100B9
:10A3D0000B48084B9847200002E000232B70002018
:10A3E00003B0F0BD79F50010084A01103D370110A7
:10A3F000784D01101D3601109C6001108DF7001082
:10A40000A04D011070B5194CA54406000C001100B8
:10A410001D00174A01A8174B98474A23E25A01AB7F
:10A420005B8800209A421DD101AB1B7A002B15D00E
:10A430000122114B1A70A18A3000104B9847041E5C
:10A4400008D00F480F4B984721000F480F4B9847F3
:10A45000200007E000232B70002003E00022064BC1
:10A460001A70002084239B009D4470BDF0FDFFFF07
:10A470000A020000FB3501109C6001108DF70010EE
:10A48000084A01103D370110A04D01101D36011082
:10A490000020704700207047C078002800D0E220DC
:10A4A0007047C0460020704710B50078002806D0DD
:10A4B0000348044B98470448044B9847E22010BDDA
:10A4C000084A01103D370110304F01101D360110B0
:10A4D00010B50400C078002808D00548054B9847FF
:10A4E000A27821880448054B9847E22010BDC04659
:10A4F000084A01103D370110444F01101D3601106C
:10A50000F8B50400194B9B2292009D1801270026E4
:10A5100018001A00563A11882288914219D11A78E7
:10A52000052A01D0082A01D1077012E0072A0FD8A6
:10A5300092000F498A5897461E700E4A1278002AD8
:10A5400007D00C4A1278013AD2B20A490A7000E0E8
:10A5500006707C33AB42DBD10748084B9847228812
:10A56000A1780748074B98470020F8BD9A80011052
:10A57000C04D0110A8820110084A01103D3701109A
:10A580007C4F01101D360110F8B506000188284BDC
:10A5900000241A898A4204D11A005E321278062AEF
:10A5A0002ED00134E4B27C33052CF2D139E02049BD
:10A5B00063011A1B92008A18157614005E34072373
:10A5C00023701C481C4B98471C481D4B9847E2259C
:10A5D0002BE01848184B98471A48194B98471449CC
:10A5E00063011A1B92008A1810005E30082707705A
:10A5F000F0781075B2781C1BA4000C19227614E0B8
:10A60000B578002DE5D0D2E70A4E30000A4DA847B4
:10A610000C480B4CA0473000A8470B48A047E22548
:10A6200003E0B578002DC2D1EEE72800F8BDC046A2
:10A630003C800110084A01103D370110AC4F011059
:10A640001D360110C04F0110E44F011010B501007C
:10A65000154B1B78DBB2132B12D8134C2378DBB2CB
:10A660009800C018C000C318104818182922104BB1
:10A670009847237823780133DBB22370002311E05D
:10A680000C480D4B98470D480D4B98470D4B98477C
:10A69000E223002806D00748074B98470A48084B92
:10A6A0009847E223180010BD84690110208301102F
:10A6B000FB350110084A01103D3701100C50011004
:10A6C0001D36011055ED001044500110F8B54F46ED
:10A6D0004646C0B4050041883A4B00241A898A4294
:10A6E00004D11A005E321278032A62D00134E4B237
:10A6F0007C33052CF2D12BE063011C1BA400314BF1
:10A700001C195E342378012B13D92F482F4B9847FF
:10A710002F48304B9847688813212F4B9847061EC7
:10A720004BD02948294B98472C482A4B9847E2267A
:10A7300043E0002641E0244E3000244DA84728483D
:10A74000244CA0473000A8472648A047E22634E022
:10A750002B79002BD0D1EEE71B481C4B98472048A3
:10A760001C4B98472A78174B994667013B1B9B0067
:10A770004B441A752A791A765E3305221A70381BF3
:10A78000800048443630290022310B32164B98465F
:10A790009847381B80004844463029003231172240
:10A7A000C047381B800048441A30A91D1C22C047EE
:10A7B00003E02E79002ECFD09EE730000CBC9046EF
:10A7C0009946F8BD3C800110084A01103D37011040
:10A7D0005C5001101D36011075ED00107C50011009
:10A7E00098500110C4500110FB35011010B584B011
:10A7F000040001A914230B8037334B80473B8B8027
:10A8000000230B814B81F533FF33CB800020054BB8
:10A8100098472088782301220121034CA04700207B
:10A8200004B010BD95ED0010F9ED0010F0B55746DD
:10A830004E464546E0B484B004000922002101A838
:10A840006B4B984725886B490A0000231089A84262
:10A8500016D110005E300078022811D165485A01E7
:10A86000D61AB60086195E3606223270F9321340C7
:10A870005A01D21A92008218127DD00705D41BE02B
:10A8800001337C32052BE1D11EE0E078002813D0A3
:10A890005901C91A8B005749C9181A312088564BDB
:10A8A0009847002800D19DE05448554B984755489B
:10A8B000554B9847E22095E05A01D31A9B004D4A28
:10A8C000D3185E3302221A70258800220023160056
:10A8D0000889A8420DD108005E300078022808D10E
:10A8E0005201921B9600434A92195E320321117065
:10A8F00005E00133DBB201327C31052BE7D101AA3F
:10A9000002211172E17891700121517003311170AF
:10A910001F005A01D21A92003649525C022A04D111
:10A9200001AA03219171D17103E001AA0121917162
:10A93000D17101AA1021517111717A01D21B9200BB
:10A940002C498A18127E402A34D15A01D31A9B000E
:10A950009A461E0060367618554668356D182B4BA2
:10A9600099460F239846C847434618403070C84759
:10A9700043461840B0740136AE42F4D156467036A4
:10A980001C4AB618214B99460F239846C8474346A0
:10A99000184028700135B542F8D11C4B98477B010F
:10A9A000DB1B9B00134AD3181A00703210807A33D5
:10A9B00010221A707A01D71BBF0060370D4ABA18EF
:10A9C0002088002301A9124CA04700280AD001AB1F
:10A9D00000229A705A700948094B98470D480A4B53
:10A9E0009847E22004B01CBC90469946A246F0BDB0
:10A9F0000D3601103C80011055FA0010084A011074
:10AA00003D370110F45001101D360110513701106F
:10AA100069F800100C510110F0B55F4656464D46DE
:10AA20004446F0B485B083460488494A0021002397
:10AA30001089A0420DD110005E300078022808D1A4
:10AA40004A01521A9500424A52195E32032111708E
:10AA500005E00133DBB201317C32052BE8D101AADC
:10AA60000221117201399170517000211170D17061
:10AA70001F005A01D21A92003549525C022A04D1B1
:10AA800001AA03219171D17103E001AA0121917101
:10AA9000D17101AA1021517111717A01D21B92005A
:10AAA0002B498A18127E402A31D15A01D31A9B00B1
:10AAB0009A461D0060356D18544668346418254B5D
:10AAC00099460F26C84730402870C8473040A874C0
:10AAD0000135A542F6D1554670351D4AAD181D4BBE
:10AAE00099460F239846C8474346184020700134C2
:10AAF000AC42F8D1174B98477B01DB1B9B00144AF3
:10AB0000D3181A00703210807A3310221A707A012A
:10AB1000D71BBF0060370E4ABA185B46188800235F
:10AB200001A90D4CA04700280AD001AB00229A7061
:10AB30005A700A480A4B98470A480B4B9847E2203C
:10AB400005B03CBC90469946A246AB46F0BDC04617
:10AB50003C8001105137011069F80010084A0110BB
:10AB60003D370110385101101D360110F0B585B088
:10AB7000050006223D4902A83D4EB04701AC042223
:10AB800029002000B047E378002B62D139483A4BC6
:10AB900098473A483A4B984700263A4CFF271E20E0
:10ABA000A047C3B2002B1AD1324F3800324EB04703
:10ABB0003548334CA0473800B0473448A047288870
:10ABC0001321334B98470300E220002B4CD0294837
:10ABD000294B98472F482A4B9847E22044E01A0017
:10ABE000303A092ADBD802AAB35438402A4B984796
:10ABF0000136062E26D0D2E71E481F4B984727481D
:10AC00001F4B98470024244E02ABE05CB047013450
:10AC1000062CF9D101AB9978288802AA204B9847D5
:10AC2000002821D01348144B98471E48144B9847CE
:10AC3000002019E00F48104B98471B48104B9847CD
:10AC4000002011E00B480C4B984718480C4B9847D4
:10AC5000D8E701AB5A8880235B009A42CCD001AB85
:10AC60009B78012BE6D0002005B0F0BDEC4E011022
:10AC7000FB350110084A01103D37011060510110E9
:10AC80001D36011075C0001088510110945101103B
:10AC900075ED00107C50011051360110A8510110C3
:10ACA00099F90010E0510110F851011014520110EF
:10ACB000F8B5060005882F4B0022002410001989E2
:10ACC000A94216D119005E310978012911D9294903
:10ACD0005201101A800008185E30062303706201CA
:10ACE000131B9B00CB1870331A8873889A4213D1B8
:10ACF00006E00134E4B201327C33052CDED10BE0F6
:10AD00006101091B89001B4B59187231301D082243
:10AD1000194B9847002815D0184F3800184EB047E7
:10AD20001848194DA8473800B0471848A84763018C
:10AD30001C1BA4000F4B1C1920890521144B98479C
:10AD4000E22016E06201131B9B00603309495B1887
:10AD5000141BA4000C19217D308801220D4CA04742
:10AD6000002806D00548064B98470B48064B9847E5
:10AD70000020F8BD3C800110DD350110084A0110AB
:10AD80003D370110285201101D360110605201108C
:10AD900075ED0010CDFA0010B852011030B5002A40
:10ADA00047D0062947D88900284B5B589F46284B37
:10ADB00005240AE0274B012407E0274B052404E083
:10ADC000264B012401E0264B0524002816D11968E2
:10ADD00000290BD106E01D000433181F006800286D
:10ADE00006D100E01D002A6001212CE0043300217F
:10ADF0000131C9B2A142EED3002124E00021012893
:10AE000021D119688A420CD106E01D000433181FB5
:10AE10000068824207D100E01D0000232B60012161
:10AE200011E0043300210131C9B2A142EDD3002168
:10AE300009E0002107E0002105E00A4B0524C4E7F2
:10AE4000094B0124C1E7080030BDC046E04D0110A8
:10AE50002880011024800110AC820110608801104C
:10AE6000C0820110D48201101C830110F0B55F462E
:10AE700056464D464446F0B491B0050000247E4B42
:10AE80001C60072200217D487D4EB0471222002120
:10AE90007C48B0477C4A00217C48B0477C4B1C7002
:10AEA000CD22920000217B48B0477B4B1C7083224F
:10AEB000920000217948B047794B9B468023DB0004
:10AEC0009A461A0000215846B047764B994680238F
:10AED0005B0198461A0000214846B047724F1C2279
:10AEE00000213800B0475B46BB605346FB604B46D1
:10AEF0003B6143467B616D4B1C605C609C60DC6029
:10AF00001C616B4B1C605C609C60DC601C61694B6D
:10AF10001C605C609C60DC601C61674B1C60674B64
:10AF20001C60674B1C605C609C60DC601C61654B56
:10AF30001C60654C9B239B009846A044504F4026C4
:10AF40007C2200212000B84723005E3300221A70C3
:10AF500026767C34A045F3D15C4B1A70524C4A4B98
:10AF600063604A4B23605A485A4B98475A485B4B98
:10AF7000984720005A4B984700280BD0544E300079
:10AF8000544DA8475748554CA0473000A84756484D
:10AF9000A047FEE7554A00210020554CA047554ADE
:10AFA00002210020A04709215348544B984700280C
:10AFB00005D04748474B98475148484B9847072288
:10AFC0005049083104A8504B98472622002106A872
:10AFD0002B4B9847002D0CD104A84C4B984704AD3F
:10AFE000002806D03A483B4B984749483B4B984786
:10AFF00004AD3748374B98472B796A79A979287877
:10B00000039068780290A8780190E8780090414811
:10B01000324CA04706AC0F2323703F4B63800722BE
:10B02000290007A8384B98470023E37623776377F6
:10B03000A377E3772384638480239B00A384200089
:10B04000364B9847002805D02148224B9847344872
:10B05000224B98472800334B9847002805D01C48BE
:10B060001C4B984730481D4B984711B03CBC90464C
:10B070009946A246AB46F0BD80690110886901106F
:10B080000D360110E8820110E2040000A0640110F6
:10B090008469011020830110188301105486011067
:10B0A000A060011090690110FC820110C0820110A3
:10B0B000D4820110288001101C830110248001100B
:10B0C000AC820110608801103C800110A882011040
:10B0D000084A01103D370110D85201101D360110E9
:10B0E0008DE90010EC5201100C5301104455011071
:10B0F0009DAD0010084F011048530110A5E8001045
:10B1000054530110EC4E0110FB350110D9E800102A
:10B110006C53011084530110983A0000FDE80010B0
:10B12000BC53011041EB0010E053011010B5012297
:10B130000121064B9847002806D00548054B984743
:10B140000548064B9847E22010BDC04615FA00108E
:10B15000084A01103D3701101C5401101D36011022
:10B16000F0B55F464E464546E0B49AB00500867A93
:10B17000002E00D0C6E07548754FB8472B796A7924
:10B18000A97968780290A8780190E87800907148D1
:10B19000714CA0476D48B84729897048A0471222D2
:10B1A00029006F486F4B98470495072229006E4885
:10B1B0006E4B9847002800D1ADE02B78022B00D0D1
:10B1C000A9E05022002106A8694B9847694F002347
:10B1D0000BE0591C147806A8C45401328BB2B34258
:10B1E000F7D17C37331E502B04D01E001036B6B278
:10B1F0003A00EEE706AA290005205F4B9847061E95
:10B2000000D19CE05148524B98475C48524B9847BC
:10B21000E22694E0E7B20594072204994846D8470D
:10B22000002809D1059A53019B1A9A00544B9B1888
:10B230005E3302221A702BE001347C239C46E144E9
:10B24000052CE7D172E01C00117800291AD101E029
:10B250000024002763019946181B8000484B98463C
:10B260004044122229003F4B9847464A1378013345
:10B27000DBB213704B461B1B9B0043445E33022220
:10B280001A7005E0791CCFB201337C32052FDAD178
:10B29000072229003448354B984700280CD17B0100
:10B2A000DB1B9B00364AD31805229A740232002118
:10B2B0002D482F4B984742E0314B98467C01E31BC9
:10B2C0009B0043440A229A74033A00212648284BE3
:10B2D0009847E41BA4004444A37C0A2B2FD10DE023
:10B2E0001A481B4B9847274B1978C9B226481A4B66
:10B2F000984728891321254B984720E02889244B1B
:10B3000098471CE01148124B9847A97A2148124BE4
:10B310009847002613E01B4B1B78DBB2042BDFD8C9
:10B32000174B99460024114B9B4673E75E23144A42
:10B33000D35C002B8CD0184A0123012783E730000F
:10B340001AB01CBC90469946A346F0BD084A0110AD
:10B350003D3701103C5401101D360110805401107E
:10B36000E8820110FB35011088690110DD350110FC
:10B370000D3601108280011005EE00109854011066
:10B380003C800110A8820110BC54011075ED001022
:10B390002DB10010F854011016810110F0B5474688
:10B3A00080B40378002B41D12F4D0024461C2F4F31
:10B3B000102229003000B84700283FD00134E4B201
:10B3C0007C35052CF4D131E0DDB21C001178002968
:10B3D00022D101E000240025254B98466601371B49
:10B3E000BF004744122223493800234B9847234A81
:10B3F00013780133DBB213705E3702233B70341BCA
:10B40000A40044440833A3746B015D1BAD004544A4
:10B41000AB7C0A2B23D104E001337C32052BD3D142
:10B420001DE0144B1889164B984718E05E23104A0C
:10B43000D35C002BCED0134A0123C5E70C4863012F
:10B440001A1B9200821811005E3102250D700A212C
:10B450009174100012220749074B9847E1E700203A
:10B4600004BC9046F0BDC04682800110DD3501105D
:10B470003C800110E8820110FB350110A882011008
:10B480002DB1001016810110F8B50D003B2872D8BF
:10B4900083003C4AD3589F46840000263A4FBB594C
:10B4A000002B04D01B59002B01D0280098470436EC
:10B4B000142EF4D165E01338C4B2A4000026334F33
:10B4C000BB59002B04D01B59002B01D028009847F2
:10B4D0000436142EF4D154E01D38C4B2A400002662
:10B4E0002B4FBB59002B04D01B59002B01D0280037
:10B4F00098470436142EF4D143E02738C0B2254BC8
:10B500001B68002B3DD08000C358002B39D00800A9
:10B51000984736E02D38C0B21F4B1B68002B30D047
:10B520008000C358002B2CD00800984729E03638FB
:10B53000C4B2A4000026194FBB59002B04D01B59DC
:10B54000002B01D0280098470436142EF4D118E0BF
:10B550003838C0B2124B1B68002B12D08000C35881
:10B56000002B0ED0080098470BE00E4B1B68002BF9
:10B5700007D0984705E00C4D28000C4CA047280048
:10B58000A047F8BDFC4D0110C0820110D48201100B
:10B59000288001101C83011024800110AC8201104E
:10B5A0006088011080690110084A01103D370110C0
:10B5B00010B5020006490748074B9847041E04D1FE
:10B5C000044B18780249054B9847200010BDC0462F
:10B5D000548601101883011035E1001089B4001061
:10B5E00030B591B008AC032363700A21A170153304
:10B5F000E3700F22227163710132A271E371033A89
:10B6000022726372043A2270A172E2720BA9114B8A
:10B6100021CB21C11B780B706B461A70FF236A4641
:10B62000537008220C4910316B46981C0B4B9847FD
:10B630000A236A4615212000094CA047002805D09E
:10B640000848094B98470948094B9847002011B012
:10B6500030BDC04648530110EC4E0110FB350110BF
:10B6600095EB0010084A01103D37011020550110DC
:10B670001D360110F0B55F4656464D464446F0B4BF
:10B680004749002300220B80464F3A70464CA246A1
:10B690001F2455462C80438202700F3CA446447000
:10B6A00018248470838282751D34C4750B3C047623
:10B6B00020260685C162022101861325AB464586F8
:10B6C0003425425583638387C3871035425501353E
:10B6D000A8462025A94645464E46465501354255C1
:10B6E0000235435302354353023543530364043553
:10B6F0004353023542551C3DA9461D354E4646551D
:10B70000013544551035664646538766633D6C27C0
:10B71000C55302375D46C5537026825543670836C8
:10B7200083530236835306368255013620278755C8
:10B7300001368255023683530236835302368353D1
:10B74000C36704368353023682554927013687552D
:10B75000013684557634015304345546055104347A
:10B76000015302340153AA3102244454043143509A
:10B7700004314352023143520631425401314254A2
:10B7800001314254C0228352023283520232835228
:10B790000C3A83503CBC90469946A246AB46F0BD5D
:10B7A0009079011092790110BE5F011010B582B03E
:10B7B000010012310323019303001433009300238B
:10B7C0000022024CA04702B010BDC04659F500103F
:10B7D00010B54B884A22825A9A4206D10C7A03222B
:10B7E000022C0FD00132002C0CD08622805A7932E4
:10B7F000984207D10A7A012A04D0002A01D10232E4
:10B8000000E0FF22100010BDF8B55F4656464D46D9
:10B810004446F0B4040000250026458206700A2341
:10B82000437018238370858286751133C375013385
:10B830009846037602239B460385E04F0522E049A4
:10B840003800E04B99469847E76205232386142386
:10B85000638634235A46E254A563A587E5871033EF
:10B86000E6540133E6540133E6540233E552023321
:10B87000E5520233E55225640433E5520233E654BF
:10B8800024220133E25401334246E25410335A4633
:10B89000E2520A22CC49CD48C847CC4BA3666C2360
:10B8A0000A22E25202331422E25202335A46E2548E
:10B8B00065670833E5520233E5520633E654013337
:10B8C000E6540133E6540233E5520233E5520233C3
:10B8D000E552E5670433E5520233E654252201338D
:10B8E000E25401334246E25410335A46E2520F22E8
:10B8F000B749B848C847A423B64AE25004330F22D8
:10B90000E25202330532E25202335A46E254043321
:10B91000E5500433E5520233E5520633E654013371
:10B92000E6540133E6540233E5520233E552023362
:10B93000E5520C3BE5501033E5520233E654272222
:10B940000133E25401334246E25410335A46E25284
:10B950000522A149A148C847E023A04AE250043388
:10B960000522E25202331422E25202335A46E254D2
:10B970000433E5500433E5520233E5520633E6540E
:10B980000133E6540133E6540233E5520233E55203
:10B990000233E5520C3BE5501033E5520233E654D6
:10B9A00026220823FF33E25401334246E254103387
:10B9B0005A46E25207228A498A48C8478E235B00CA
:10B9C000884AE25004330722E25202331422E25240
:10B9D00002335A46E2540433E5500433E55202334D
:10B9E000E5520633E6543623FF33E6540133E6547A
:10B9F0000233E5520233E5520233E5520C3BE55087
:10BA00001033E5520233E65428224423FF33E25434
:10BA100001334246E25410335A46E2520722724939
:10BA20007248C847AC235B00704AE25004330722D7
:10BA3000E25202331422E25202335A46E2540433F1
:10BA4000E5500433E5520233E5520633E6547223DF
:10BA5000FF33E6540133E6540233E5520233E55234
:10BA60000233E5520C3BE5501033E5520233E65405
:10BA700023228023FF33E25401334246E254103341
:10BA80005A46E25205225A495A48C84738007D3082
:10BA9000574908310322C847CA235B00554AE25080
:10BAA0008D3BFF3BCC225200A3520232A35295336E
:10BAB000FF335A46E2540433E5500433E55202336F
:10BAC000E5520633E654AE23FF33E6540133E65421
:10BAD0000233E5520233E5520233E5520C3BE550A6
:10BAE0001033E5520233E654BC23FF335022E254B4
:10BAF00001334246E25410335A46E252CC3BFF3BFC
:10BB00008022BB543C4A82217A523C4A02317A520A
:10BB10008622BB52390080314B32FF32A1500432B1
:10BB20000721A15202320721A15202325946A154E3
:10BB30000432A5500432A5520232A5520632A65450
:10BB4000EA22FF32A6540132A6540232A552023232
:10BB5000A5520232A5520C3AA5501032A55202321B
:10BB6000A654F822FF324146A1540132A1541032AA
:10BB70005946A15288370432A7500432A352204BB1
:10BB80000A22E2520233E1540433E5500433E55211
:10BB90001C4BE5520633E6541B4BE6541B4BE65454
:10BBA0000233E5521A4BE5520233E5520C3BE550A5
:10BBB0003CBC90469946A246AB46F8BD648801104D
:10BBC0009C550110FB350110A45501107888011017
:10BBD000B05501108C880110C0550110A0880110CB
:10BBE000C8550110B4880110D0550110C888011043
:10BBF00090550110DC880110222200003333000030
:10BC0000120200001E0200002502000026020000B1
:10BC10002A02000010B582B00100123109230193FD
:10BC200003001433009300230022024CA04702B00B
:10BC300010BDC04659F50010F0B557464E46454672
:10BC4000E0B4454F002300223B804449894601214E
:10BC50004C462170424CA2462270438202700D2451
:10BC600044700B348470838282751F34C4750D3C1C
:10BC7000047610250585C7620227078609254586B3
:10BC80003425425583638387C38710354255243D4D
:10BC9000A84625354646465501354255023543539B
:10BCA000023543530235435303640435435302358D
:10BCB00042551A3DA8461B35464646550135445562
:10BCC000103547534D4685666C26815302368153A5
:10BCD0000236875543670836835302368353063648
:10BCE000825501368255013682550236835302361B
:10BCF000835302368353C367043683530236825517
:10BD000039270136875501368455883E76340653E7
:10BD100004345546055104340153023401536A3C3E
:10BD2000AB31445404314350043143520231435245
:10BD3000063142540131425401314254C0228352EF
:10BD400002328352023283520C3A83501CBC90461A
:10BD50009946A246F0BDC04694790110C05F01101B
:10BD60009379011010B582B00100123103230193C1
:10BD700003001433009300230022024CA04702B0BA
:10BD800010BDC04659F500104B884A22825A9A428B
:10BD900007D1087A01280DD0431E98414042C0B215
:10BDA00008E08C22825AFF209A4203D10B7A012BA1
:10BDB00000D1FD387047C0467047C04600B589B015
:10BDC00001A8054B9847054B0393054B069301A823
:10BDD000044B984709B000BD4D85001080BA8C0116
:10BDE00000751903E185001010B501000020074C13
:10BDF000A04707490120A0470020064CA04701208A
:10BE0000A0478022D201044B1A6010BDE5860010C5
:10BE1000B9BD0010BD85001000E100E010B500289C
:10BE200000D10130054B43431A0000210020044B90
:10BE300098470020034B984710BDC04680BA8C013C
:10BE4000718500109985001010B50020014B9847AE
:10BE500010BDC046BD85001010B51720054B984792
:10BE6000054B1B68002B00D098471720034B9847C1
:10BE700010BDC046658D001098790110098D001025
:10BE800010B582B001AC2000054B98470023237009
:10BE9000637021001720034B984702B010BDC046C5
:10BEA0004D8800105D88001010B5084B1860002800
:10BEB00003D11730064B984707E0022205491720A7
:10BEC000054B98471720054B984710BD98790110EE
:10BED000658D001059BE0010398C0010098D0010BE
:10BEE00010B50E4B1B78012B0BD102220B4B1A7095
:10BEF0000B4B1B68002B10D102210A480A4B9847B4
:10BF00000BE0074B1B68002B07D0084C20789847A4
:10BF1000012221000348064B984710BDA07901106B
:10BF2000A8790110F8880110019B0010A479011074
:10BF3000A59A001070B506000D00034C29003000D2
:10BF4000A0470028FAD170BD919A001070B5060084
:10BF50000D00034C29003000A0470028FAD170BD25
:10BF6000819A001070B500210020194B9847194C98
:10BF70002000194B9847E1235B0223600223A36052
:10BF80000322E2600132226101326261A361E36156
:10BF900023626362114D124B1D60124A124B1A60EC
:10BFA000124A134B1A60220012492800124B98477C
:10BFB000124E336898680021114CA04733685868C6
:10BFC0000021A04702220F4928000F4B984770BD5F
:10BFD0000D8E00101C89011099980010F88801102E
:10BFE000487C01104DBF0010447C011035BF00108B
:10BFF000407C011000400040C59800105C600110BA
:10C00000C9370110E1BE0010CD9A0010F0B583B021
:10C0100005000D4CA047A0470C4FB8470C4E0D4AE9
:10C020000D4BB04700900191FA2080006843B8475B
:10C0300002000B0000980199B047084B9847084B45
:10C04000186003B0F0BDC046918E00108D30011015
:10C0500085240110C7AEFE19EFD8093F091A011057
:10C060009C790110024B1A68501E18607047C04638
:10C070009C79011070B504000122114B1A70114B0C
:10C080001B68002B03D102210F48104B984720005A
:10C090000F4B98470F4900230B7001220A480E4BA3
:10C0A0009847074C0D4D2378022B02D0A847002853
:10C0B000F9D10022024B1A70064B187870BDC046A9
:10C0C000A0790110A8790110F8880110E19A0010F8
:10C0D0000DC00010A4790110A59A001065C00010D1
:10C0E000024B1A68026018607047C046B0790110B0
:10C0F00030B50B4B1C68002C11D025681D60002347
:10C100002360A160E280A080064B1A68002A02D159
:10C110001C6004E01A001368002BFBD1146030BDD2
:10C12000B0790110AC79011070B50023064A136094
:10C13000064A1360064C26007836064D2000A847B4
:10C140000C34B442FAD170BDB0790110AC79011051
:10C15000B4790110E1C0001070B50400134B1D68E4
:10C16000134B1B6898470C2C1FD00C3CE388052B05
:10C170001BD0EB0714D40F4B1B68022098470E4BC3
:10C180001B6898470D4C0320236898470028FAD174
:10C190000B4B1B680230984701220A4B1A6004E0DF
:10C1A000094B1868094B1B68984770BDECB10040FB
:10C1B0005C7A0110547A0110687A0110407A0110FB
:10C1C000487A011020B000404C7A01103C7A0110EE
:10C1D00010B5064B064A196811605A68054B1A607B
:10C1E000054B1B68002B00D0984710BD44890110F7
:10C1F0000CB0004010B00040208C011070B532220D
:10C2000000210D480D4B984700210B4801250224C1
:10C210004A001154821853782B43DBB2A343537066
:10C2200001311929F4D1044B5A7818398A435A70CC
:10C23000DA788A43DA7070BD608901100D3601101A
:10C24000064A1168064B0B401360064A1360064904
:10C250000868064B03400B60536070470CB0004009
:10C26000D30FFEFF4489011010B00040C0E7FFFF6C
:10C27000F0B557464E464546E0B44F4B1B78002B71
:10C2800004D04D4B1B78012B00D18CE04B4B9847D1
:10C290004B4B9847002398464A4B42461A604A4CFB
:10C2A0008023802212049246E2508022520491465A
:10C2B000E250464D464B2B60464B474A1360474978
:10C2C000474A1160474A1168474A1160474A116856
:10C2D000474A11604749484A11604849484A116035
:10C2E000484F494A3A604949494A116049494A4ACE
:10C2F00011604A4E4A4A32604A494B4A11604B49E2
:10C300004B4A11604B494C4A11604C494C4A1160F0
:10C310004C494D4A1160282098474C4928202B68E9
:10C3200098472B684A49272098474A4B1A684A4B36
:10C330001A604A4A4A4B1A604A4A4B4B1A604B4AA7
:10C340004B4B1A604B4A4C4B1A604C4A4C4B1A6090
:10C350004C4A4D4B1A604D4A4D4B1A60A022920038
:10C3600000214C484C4B9847802292004B4B1A803E
:10C370004B4B9847534623604B462360494B4246FC
:10C380001A603B68484A1A603368484A1A600020BD
:10C39000474CA0470120A0470220A0470122064B9E
:10C3A0001A70002003E00122034B1A7001201CBC0C
:10C3B00090469946A246F0BD447A0110FDC1001096
:10C3C00041C20010647A011000E100E0148C0110F9
:10C3D000D7070000BD0700005089011051BC0100C3
:10C3E000188C0110BC000410347A0110B80004103D
:10C3F000307A01109FB901004C890110DBB90100AE
:10C4000058890110288C01103C000410C01F041032
:10C410005C890110C41F0410248C01101C8C0110B5
:10C42000D41F0410D81F041054890110E9CB010057
:10C43000547A01108FCD0100487A0110A3CE01007B
:10C44000687A0110CFCB0100407A0110DDC80010DE
:10C4500071C80010E40004105C7A0110E99F01002B
:10C460006C7A0110DDDB01003C7A01105BDC01001D
:10C47000507A0110EC0504104C7A0110E3D501004C
:10C48000587A0110200C0410707A0110099F0100E5
:10C490002C7A0110948901100D3601102C8C01109A
:10C4A00029C10010208C0110D1C1001039C9001021
:10C4B00021C90010044B1A780523012A02D1034B2D
:10C4C0001860002318007047447A0110647A011044
:10C4D00070B504000E4B1B68002B02D040889847B3
:10C4E0006080E388A288618820880A4D2D68A8476B
:10C4F0000500E288002A02D1074B984706E0210098
:10C500000831064B98472800034B984770BDC0463A
:10C51000347A01106C7A011059C10010FB350110FA
:10C5200070B515001C000A0202430A4B1E68230066
:10C530000521A020C000B047061E0AD0002C05D05F
:10C54000002D03D022002900034B98473000034BF5
:10C55000984770BD6C7A0110FB35011059C100106D
:10C56000F0B55F4656464D464446F0B487B0441E8B
:10C5700000239946E31C1CD80D22002102A8824BFF
:10C580009847332302AA1370303B537093700233E1
:10C59000137193711472230A5372230C9372240E35
:10C5A000D472012313730D211000784B9847012397
:10C5B000994600240025764F764E774938683368CF
:10C5C0009847002800D088E0734B1C68A3889A46DF
:10C5D000CD239B009A4500D1C7E023899B46638900
:10C5E00098464B46002B11D00D22002102A8664B25
:10C5F0009847332302AA1370303B53709370023371
:10C60000137193710D211000604B9847A023DB003C
:10C610009A4521D1614B1B884344A022920093424A
:10C6200002DD803A5D4B1A805C4B9A461D885C4B5C
:10C63000ED1821000C31424628005A4B98474246DB
:10C6400029005846584B984753461B884344524646
:10C650001380002402253AE0544B1B68002B32D093
:10C660004D4B1A689388CD2189008B4204D14B46EB
:10C670000124002B2BD028E04D4C494D25602B7018
:10C680001B0A6B7010894B4B1B6898472871000A76
:10C6900068712068404B1A68D28842801D686B8997
:10C6A000C380083020606A89002A03D029000C3139
:10C6B0003C4B9847698908313C4B1B683848984780
:10C6C0000024032503E0002401E00024D025324BA0
:10C6D0001868394B1B68984700E00725002C00D0EC
:10C6E0006BE74B46002B46D0294B1E68002E04D129
:10C6F00000231C6A002C31D13DE0346A14239C468F
:10C70000B4446346604600932C4B1B689847002C4A
:10C710001FD00027CD239B009846274B9A46200028
:10C7200003689B88434510D1002F06D08368BB6007
:10C7300053461B689847B86809E0836833621E4B0C
:10C740001B6801939847306A01E007008068002861
:10C75000E6D11B4B1B68009898470CE0142300930C
:10C76000164B1B6814209847D3E7104B1B68002416
:10C77000002BACD07BE7280007B03CBC9046994624
:10C78000A246AB46F0BDC0460D360110D1C4001024
:10C79000707A0110587A0110387A01102C8C01102F
:10C7A00094890110FB350110F1C00010647A01106A
:10C7B000607A0110307A01102C7A0110507A011041
:10C7C0003C7A011010B5034B1B688020000298478B
:10C7D000082010BD4C89011010B5034B1B68802048
:10C7E000C0019847002010BD58890110002803D0CF
:10C7F000024B1860002000E009207047208C0110D7
:10C8000030B5184A138F9BB2108D80210902014365
:10C8100011851000144D01240022DB05DB0D11D021
:10C82000DBB259420B40012B06D011005B080131ED
:10C83000C9B2012BFAD100E0110023008B409BB25A
:10C84000038703E0038F2B439BB20387038FDB0532
:10C85000DB0DE2D1802149008133FF33034AD150FF
:10C8600030BDC046001001400080FFFF00E100E045
:10C8700030B5174A138F9BB2108D802109020143F6
:10C8800011851000134D01240022DB05DB0D11D0B2
:10C89000DBB259420B40012B06D011005B0801317D
:10C8A000C9B2012BFAD100E0110023008B409BB2EA
:10C8B000038703E0038F2B439BB20387038FDB05C2
:10C8C000DB0DE2D180218133FF33034AD15030BDEB
:10C8D000000001400080FFFF00E100E010B50C4BBC
:10C8E0001B8F5B0B10D00B4B1B689847084A138FAC
:10C8F000118F5B0B5B030B43138780214900C0231F
:10C900005B00054AD15001E0044B984710BDC0467A
:10C9100000100140188C011000E100E001C8001077
:10C920000323022804D880000022024BC2500023B7
:10C9300018007047308C011010B504000378012BEB
:10C9400008D1114B1B68002B00D09847FF232268A9
:10C950009A4322606378012B08D10B4B5B68002B54
:10C9600000D09847094B226813402360A378012B1D
:10C9700008D1054B9B68002B00D09847044B2268D8
:10C980001340236010BDC046308C0110FF00FFFF34
:10C99000FFFF00FF10B5234B18782821224B984742
:10C9A000C0B2224B1870224B1B78834238D0042827
:10C9B00034D883001F4AD3589F4632221E4B1A7028
:10C9C00014321E4B1A70433A1D4B1A8026E0472240
:10C9D000194B1A701332194B1A70503A184B1A80AF
:10C9E0001CE05B22144B1A701332144B1A705A3A23
:10C9F000134B1A8012E06F220F4B1A7013320F4B39
:10CA00001A705A3A0E4B1A8008E082220A4B1A70AA
:10CA100015320A4B1A705B3A094B1A80044B187096
:10CA200010BDC046757A01104D1801107E7A0110B4
:10CA3000C15F011018560110B78C01104991011007
:10CA4000A08C0110C378002B02D10122014B1A7077
:10CA500000207047E75F011010B5024B9847024B6A
:10CA6000984710BDFDC1001065BF001030B583B000
:10CA70006C46E280082B1BD89A001A4CA2589746A5
:10CA80008222502416E05A223C2413E064224624D9
:10CA900010E078223C240DE011220A240AE00B2247
:10CAA000072407E00C22082404E011220A2401E0F4
:10CAB000002214006D4606352D8892B2AA4203D199
:10CAC000FF24094AD45405E0A4B2A54202D10124AE
:10CAD000054AD454401802226B46991D034B9847CF
:10CAE00003B030BD2C560110C85F0110FB3501109A
:10CAF00010B54378032B06D10748084B984701220D
:10CB0000074B1A7005E00748044B98470022044B76
:10CB10001A70002010BDC046485701101D36011084
:10CB2000887A01107057011010B50248024B9847DF
:10CB300010BDC046B88C0110D182001010B5002283
:10CB4000044B1A800448054B98470548054B984705
:10CB500010BDC046DE5F0110084A01103D370110CC
:10CB6000985701101D36011010B50124094B1C7097
:10CB700000211620084B98470848094B9847094858
:10CB8000094B98470022094B1A70094B1C70002072
:10CB900010BDC0467B7A0110158A0010084A0110AA
:10CBA0003D370110C45701101D3601107A7A01106B
:10CBB000EE5F0110F0B587B004001322002101A838
:10CBC0003B4B98473B4B1C70002C69D03A483B4B81
:10CBD00098473B483B4B98473B4B1B78002B1ED05C
:10CBE000354E3000354DA847384F39883848354CD8
:10CBF000A0473A8801AB1A803000A847354F3988E2
:10CC00003548A0473A886B46DA803000A847334D54
:10CC100029883348A0472A8802AB1A801DE0314C8E
:10CC2000228801AB1A80244E3000244DA847218869
:10CC30002D48244CA0472D4F3A886B46DA803000AF
:10CC4000A84739882A48A0472A4F3A8802AB1A8059
:10CC50003000A84739882848A04701AC227804232F
:10CC6000134323701448154B9847244D29882448B2
:10CC7000144B98472A880A236B441A800122214BBF
:10CC80001A70123221002048204B98470822204B6E
:10CC90001A7000230022012141201E4CA04705E00C
:10CCA0000548064B98471C48064B984707B0F0BD0F
:10CCB0000D360110897A0110084A01103D37011024
:10CCC0001C5801101D360110767A0110E25F011028
:10CCD0005C580110F25F011078580110D25F01100A
:10CCE00094580110E85F0110B0580110C45F0110A2
:10CCF000C8580110EA5F0110E0580110F05F011000
:10CD0000F8580110787A0110A48C0110FB3501103D
:10CD1000807A011021C500101059011010B50122B0
:10CD2000044B1A700023002201214120024CA0472D
:10CD300010BDC046F45F011021C5001010B50128D8
:10CD400009D10B480B4B98470B480C4B98470120D7
:10CD50000B4B98470AE00B4B984700220A4B1A707E
:10CD60000348044B98470948044B984710BDC046F8
:10CD7000084A01103D3701104C5901101D360110B1
:10CD80001DBE001049BE0010837A011064590110C5
:10CD900010B50024314B1C70314B9847314B1C703F
:10CDA0000322314B1A80314B1C70314B1C70FC320A
:10CDB000304B1A70304B1C70304B984701211620B5
:10CDC0002F4B98472F48304B98473048304B984767
:10CDD0003C22304B1A80353A2F4B1A8049322F4B68
:10CDE0001A80463A2E4B1A803C322E4B1A803E3A1D
:10CDF0002D4B1A802D4B1B78422B0CD13A322C4BE9
:10CE00001A802A4B5A782B4B1A800F222A4B1A80F1
:10CE1000053A2A4B1A800722294B1A800132294BE6
:10CE20001A803432284B1A8028493B3A087801236B
:10CE300043400B70264B1A70264B1A700023264A6B
:10CE40001370264A1370264A1370264A1370054A37
:10CE50001370254B9847002010BDC0467B7A011007
:10CE600049BE0010837A0110DE5F0110757A01104F
:10CE70007E7A0110C15F0110857A011095C90010FA
:10CE8000158A0010084A01103D3701107C59011025
:10CE90001D360110E05F0110EC5F0110D85F01103A
:10CEA000C25F0110D65F0110E45F01107C7A0110AF
:10CEB000E25F0110F25F0110D25F0110E85F011024
:10CEC000C45F0110EA5F0110F05F0110767A011073
:10CED000DA5F0110EE5F0110747A01107F7A0110A1
:10CEE0008A7A0110897A0110299E001010B50A4B28
:10CEF00098470124094B1C70094B9847094B1C703B
:10CF0000094B1C700023002201214120074CA0473F
:10CF10000A20074B984710BD49BE0010847A0110C3
:10CF200095C90010837A0110827A011021C5001082
:10CF30001DBE001010B502000078024B0249034CE0
:10CF4000A04710BDE75F0110F890011005A4001084
:10CF5000F8B52A4C25782A4E2800B047294B18608E
:10CF600064782000B047284B18602C43812C04D1F2
:10CF700000211620254B984703E001211620234B62
:10CF800098471E4B1C78432C03D15A78204B1A80AB
:10CF900030E0422C09D142221E4B1A80174B5B789D
:10CFA0001D4A13801D4A138024E063B2002B21DB4D
:10CFB000124B5D786BB2002B1CDB114F2000B84781
:10CFC000061C104B18602800B847154B9847154AA7
:10CFD000154B164DA847164B9847011C0A4B186075
:10CFE000301C144B9847144B1860144B18602000E9
:10CFF000134B98471348144B9847F8BD7C7A01109F
:10D0000009240110508C01105C8C0110158A00104D
:10D01000867A0110E25F0110F25F0110D25F011009
:10D02000FD3001109A9999999999B93F8524011079
:10D03000A5310110451A01104C8C0110488C0110CB
:10D0400051360110B88C0110D182001010B584B097
:10D05000040001A914230B8037334B80473B8B809E
:10D0600000230B814B81F533FF33CB800020044B31
:10D0700098472289034B1A80002004B010BDC04697
:10D0800095ED0010448C011010B584B01548164B76
:10D090009847164B9847164B18701B78002B06D0F4
:10D0A000134B1978C9B213480F4B9847FEE700237A
:10D0B0000293114B01935A33FF3300930023002254
:10D0C000012100200D4CA047094B18701B78002B44
:10D0D00006D0074B1978C9B20648034B9847FEE7BC
:10D0E00004B010BD985901101D360110E1B50010B3
:10D0F0004A910110BC5901108F02000019EC001078
:10D1000010B584B0164B9847041E08D01548164B2E
:10D11000984721001548164B984720001EE0002331
:10D120000293144B0193C823DB00009300230022D9
:10D1300001210020104CA047041E07D109480A4BCA
:10D1400098470E480A4B9847002007E00548064BD1
:10D15000984721000A48064B9847200004B010BDAC
:10D16000E1B50010084A01103D370110EC590110DB
:10D170001D3601108F02000019EC0010185A011022
:10D18000285A011010B50022064B1A700132064BC6
:10D190001A70064B98470648064B9847064B984727
:10D1A000002010BD797A0110E75F011001D1001055
:10D1B000485A01101D36011089D0001030B585B0D5
:10D1C00002AC0125E57009232371073B6371063327
:10D1D000A3701C33A371153B23800949094B1868C0
:10D1E000094B9847094B9847FF231B0618430095A6
:10D1F000012304222100064CA04705B030BDC046E3
:10D20000000020414C8C0110911E0110D919011011
:10D2100021FB001010B582B001AC2000044B9847F0
:10D220000123237021001620024B984702B010BD45
:10D230004D8800105D880010F0B55F4656464D469B
:10D240004446F0B48FB00125DE4B1D70DE4B1D70DF
:10D250000024DE4B1C70DE4B1C70DE4B1D70DE4B61
:10D260001C70DE4B1C70DE4B1C70DE4B1C700922E8
:10D270000121DD48DD4EB0471E22DD4B1A80053A04
:10D28000DC4B1A800A3ADC4B1A80053ADB4B1A80D9
:10D290000721DB4B19800823DA4803803C20DA4F52
:10D2A0003880DA4F3880DA4801805020D949088028
:10D2B000D9490A804621D94A1180D94A1380D94BCD
:10D2C0001D70D94B1D70D94B1C70D94B1C7013228B
:10D2D0000021D848B047D84B1C70D84B9847D84B42
:10D2E0009847D84B9847D84B9847D84B9847D84839
:10D2F000D84B98470120D84B9847D848D84B9847E7
:10D300000020D84B984704A8D74B984796239B01F9
:10D3100004930223069303220792013208920132FA
:10D3200009920A930B930C930D93D04DD04C04AA01
:10D33000D0492800A0470028F9D1CC4B9A461800C4
:10D34000CD4B98475046CD4B984704AC2000CC4E6F
:10D35000B0470223984623730025E572E370C94F56
:10D3600021003800C84B9B4698472000B047012356
:10D3700099460126E370A5702371C44D2100280051
:10D38000D847C3490B7B3343022213430B73032358
:10D390009C46CB6862461340CB6043468B60BD4BD6
:10D3A0009B460B6053461B684B60BB4C227B324351
:10D3B0000220024322736246E0680240E260424675
:10D3C000A260103323605B4663603800B34B98461D
:10D3D000984721002800C04701211620B04B9847EC
:10D3E000B04B7B60B04B6B602423FA5C3243FA5441
:10D3F000EA5C1643EE5480221202AC4B1A60002005
:10D40000AB4B98472800AB4B9847AB48944B984799
:10D41000AA4B02930C2301934B4600931D33012228
:10D4200001210120A64CA047A64B18701B78002BA9
:10D4300003D0A5488A4B9847FEE7A44B9847A44BD6
:10D440009847A448A44B9847A44DA5492800A54B4C
:10D450009847A548A54B9847A548814B9847002079
:10D46000A44B9847A44C0822002120005F4B98470A
:10D47000A24B23800123E370A3702800A04B9847A0
:10D48000041E06D09848994B984721009D48744B3C
:10D4900098479D48724B98479C4A002100209C4B1E
:10D4A0009847884B18701B78012B02D099486C4B19
:10D4B0009847994A04210020954B9847814B187052
:10D4C0001B78012B02D09548654B9847944B9847A1
:10D4D000944B9847944B9847944A002100208C4CD9
:10D4E000A047934A02210020A0470123914A1370CC
:10D4F000914A13709148924B9847924C2000924B5E
:10D5000098479248924B98472000924B98479248F0
:10D51000924B98470120924B98470023002201210B
:10D520004120904CA047904F904C01204042B8477A
:10D530002378002B00D138E100238C4A13708C4BE8
:10D5400098478C4B1B78002B00D12EE1644B186858
:10D55000894B9847C2B2894B1888864B5F49884DE2
:10D56000A84700280BD16048604B98475C4B18686F
:10D57000844B984702000B00834839498847584B31
:10D580001D688249281C824B9847002803D000223E
:10D59000804B1A7008E00021281C7D4B984700281A
:10D5A00002D001227B4B1A707A4B1B78002B00D1E2
:10D5B000F4E0FE218905281C774B9847484B1860FA
:10D5C000F3E0C046DA5F0110EE5F0110767A0110D9
:10D5D000837A0110897A01108A7A01107F7A01100A
:10D5E000747A01107B7A0110C85F01100D360110AA
:10D5F000E25F0110F25F0110D25F0110E85F0110DD
:10D60000C45F0110EA5F0110F05F0110E05F0110DC
:10D61000EC5F0110D85F0110C25F0110D65F0110EE
:10D62000E45F0110E65F0110F45F0110827A0110DF
:10D63000787A0110A48C0110807A011071C2001058
:10D64000C5C7001065BF001015D20010BDBD001089
:10D65000EDCE0010E9BD00101DBE0010745A01107F
:10D660001D3601106DAE001099980010F888011059
:10D67000C598001000400040219B0010599B0010ED
:10D68000F9810010708C011049830010B88C0110D2
:10D69000E89001107C7A0110608C01102982001042
:10D6A000158A001029CB001051CF001000E100E0D6
:10D6B00095A20010D1820010905A0110588C0110D0
:10D6C00001FB00104A910110C45A0110A18D0010F5
:10D6D00081BE00101DCD0010A9BE0010F8900110F1
:10D6E000488C0110F1A20010084A01103D370110CA
:10D6F000E45A0110FD9E00103C8C0110DF07000071
:10D7000061A30010145B0110385B01106456011016
:10D710009DAD0010705B0110B0560110A05B0110B0
:10D7200089D00010299E001001D10010D45601109C
:10D7300020570110777A01107A7A011059CA001027
:10D74000EDC700103DCD0010F1A000103DCB001042
:10D75000FDA00010059D0010B5CB0010119D00101C
:10D760002DEE001021C50010B1B50010797A01101E
:10D77000BDD10010E75F0110D9190110448C0110D0
:10D7800085A30010FD300110D05B01100000C842DD
:10D790007D190110D45F0110451A0110FE21890581
:10D7A000281CC24B9847C24B1860C24B9847C24BCB
:10D7B0001B78002B18D0BE4B1868C04B9847C2B2DC
:10D7C000BF4B1888BC4BBF49BF4DA84700280BD1A1
:10D7D000BE48BF4B9847B64B1868BE4B98470200EF
:10D7E0000B00BD48BD498847BD4B1B78002B01D1BC
:10D7F000BC4B1B78BA4B1B78002B04D0BA4B984714
:10D800000022B74B1A70B94B1B78002B00D183E074
:10D810001620B74B9847B74B1B78002B73D0B64BED
:10D820001B88002B00D149E3B44B18780A21B44B74
:10D830009847B44B1B78C9B28B4200D13AE310220F
:10D8400004AB1A70A148A24B9847AF4D2988AF4846
:10D85000A24B984704AB2A885A701B7802251B07F5
:10D8600005D5A54B1A8812236B441A800235A84BA4
:10D870001A88A84B9A4202D96422A54B1A80A44E5A
:10D8800031880A00C832A448944B984704AA3388C8
:10D8900053531900C8310800A91C50520435913364
:10D8A000FF3333809D4B1A78042A16D893009C4A84
:10D8B000D3589F469B48894B98470EE09A48874B20
:10D8C00098470AE09948854B984706E09848834B6B
:10D8D000984702E09748814B984704AB1B781B0799
:10D8E0000CD57A487A4B9847834E318892487B4BC7
:10D8F00098473288914B1B88D3183380290004A89D
:10D900008F4B984705E07148714B98478D48734B92
:10D9100098470022754B1A70724B1B78002B06D06B
:10D92000894B98470023894A13706E4A1370884BBD
:10D930001B78002B4ED0874B1B78002B06D0864AD5
:10D940001378013313700122844B1A70844B9B7936
:10D950003A2B03D80133824A937135E0804B002281
:10D960009A715B793A2B03D801337D4A53712BE0CE
:10D970007B4B00225A711B79162B03D80133784A4E
:10D98000137121E0764B00221A71DB781E2B03D82D
:10D990000133734AD37017E0714B0122DA709B7820
:10D9A0000B2B03D801336E4A93700DE06C4B0122B0
:10D9B0009A701B886B4A934203D80133684A1380DC
:10D9C00002E0694A664B1A800120684B98470022A2
:10D9D0005F4B1A70664B1B78002B23D05B4B1B7878
:10D9E000002B1FD05B4B1B78002B00D076E2614BE5
:10D9F0001B78002B00D16CE25F4A117801234B4069
:10DA00001370544B01221A700022534B1A70374B7B
:10DA10001B78002B00D1F9E22C482D4B9847574832
:10DA20002E4B9847564B1B78002B07D0554B197837
:10DA30005548564B98470022514B1A70454B1B785E
:10DA4000002B00D1DDE1444B1B78092B00D9DCE031
:10DA5000264A1278002A00D14AE2404B1B78002B5C
:10DA600000D1D2E0234B1B78002B00D1CAE0132257
:10DA7000002104A8464B98473F4B1B78002B00D150
:10DA800090E01248124B9847424D29884248134B68
:10DA900098472A880723012104A8404EB047404BED
:10DAA00007229A562B88D3182B8092E0B9200110B8
:10DAB000488C0110BDD10010E75F0110D919011089
:10DAC000448C0110F890011085A30010084A011041
:10DAD0003D370110FD300110E45B01101D360110CF
